{
  "contractName": "CertTokenExt",
  "abi": [
    {
      "inputs": [
        {
          "name": "_certTokenContract",
          "type": "address"
        }
      ],
      "payable": false,
      "stateMutability": "nonpayable",
      "type": "constructor"
    },
    {
      "constant": false,
      "inputs": [
        {
          "name": "_certTokenContract",
          "type": "address"
        }
      ],
      "name": "setCertContract",
      "outputs": [],
      "payable": false,
      "stateMutability": "nonpayable",
      "type": "function"
    }
  ],
  "bytecode": "0x608060405234801561001057600080fd5b506040516020806102258339810180604052602081101561003057600080fd5b81019080805190602001909291905050506100598161005f640100000000026401000000009004565b506100dc565b600073ffffffffffffffffffffffffffffffffffffffff168173ffffffffffffffffffffffffffffffffffffffff16141561009957600080fd5b806000806101000a81548173ffffffffffffffffffffffffffffffffffffffff021916908373ffffffffffffffffffffffffffffffffffffffff16021790555050565b61013a806100eb6000396000f3fe608060405234801561001057600080fd5b5060043610610048576000357c010000000000000000000000000000000000000000000000000000000090048063aedf65c51461004d575b600080fd5b61008f6004803603602081101561006357600080fd5b81019080803573ffffffffffffffffffffffffffffffffffffffff169060200190929190505050610091565b005b600073ffffffffffffffffffffffffffffffffffffffff168173ffffffffffffffffffffffffffffffffffffffff1614156100cb57600080fd5b806000806101000a81548173ffffffffffffffffffffffffffffffffffffffff021916908373ffffffffffffffffffffffffffffffffffffffff1602179055505056fea165627a7a723058208a0902fa3c2129b654f7d1f6725ba40f63fb188bbf684ddc3b4142f0c21a9d990029",
  "source": "pragma solidity ^0.5.6;\n\nimport \"./CertToken.sol\";\n\ncontract CertTokenExt {\n    CertToken certTokenContract;\n\n    constructor(address payable _certTokenContract) public {\n        setCertContract(_certTokenContract);\n    }\n\n    function setCertContract(address payable _certTokenContract) public {\n        require(_certTokenContract != address(0));\n        certTokenContract = CertToken(_certTokenContract);\n    }\n}",
  "sourcePath": "/mnt/c/Users/happy/Documents/workspace/sillock/sillock-contracts/contracts/CertTokenExt.sol",
  "compiler": {
    "name": "solc",
    "version": "0.5.6+commit.b259423e.Emscripten.clang"
  },
  "schemaVersion": "3.0.3",
  "updatedAt": "2021-02-28T13:29:07.259Z",
  "devdoc": {
    "methods": {}
  },
  "userdoc": {
    "methods": {}
  }
}