{
  "contractName": "CertToken",
  "abi": [
    {
      "constant": true,
      "inputs": [
        {
          "name": "interfaceId",
          "type": "bytes4"
        }
      ],
      "name": "supportsInterface",
      "outputs": [
        {
          "name": "",
          "type": "bool"
        }
      ],
      "payable": false,
      "stateMutability": "view",
      "type": "function"
    },
    {
      "constant": true,
      "inputs": [
        {
          "name": "tokenId",
          "type": "uint256"
        }
      ],
      "name": "getApproved",
      "outputs": [
        {
          "name": "",
          "type": "address"
        }
      ],
      "payable": false,
      "stateMutability": "view",
      "type": "function"
    },
    {
      "constant": false,
      "inputs": [
        {
          "name": "to",
          "type": "address"
        },
        {
          "name": "tokenId",
          "type": "uint256"
        }
      ],
      "name": "approve",
      "outputs": [],
      "payable": false,
      "stateMutability": "nonpayable",
      "type": "function"
    },
    {
      "constant": true,
      "inputs": [],
      "name": "totalSupply",
      "outputs": [
        {
          "name": "",
          "type": "uint256"
        }
      ],
      "payable": false,
      "stateMutability": "view",
      "type": "function"
    },
    {
      "constant": false,
      "inputs": [
        {
          "name": "from",
          "type": "address"
        },
        {
          "name": "to",
          "type": "address"
        },
        {
          "name": "tokenId",
          "type": "uint256"
        }
      ],
      "name": "transferFrom",
      "outputs": [],
      "payable": false,
      "stateMutability": "nonpayable",
      "type": "function"
    },
    {
      "constant": true,
      "inputs": [
        {
          "name": "owner",
          "type": "address"
        },
        {
          "name": "index",
          "type": "uint256"
        }
      ],
      "name": "tokenOfOwnerByIndex",
      "outputs": [
        {
          "name": "",
          "type": "uint256"
        }
      ],
      "payable": false,
      "stateMutability": "view",
      "type": "function"
    },
    {
      "constant": false,
      "inputs": [
        {
          "name": "from",
          "type": "address"
        },
        {
          "name": "to",
          "type": "address"
        },
        {
          "name": "tokenId",
          "type": "uint256"
        }
      ],
      "name": "safeTransferFrom",
      "outputs": [],
      "payable": false,
      "stateMutability": "nonpayable",
      "type": "function"
    },
    {
      "constant": true,
      "inputs": [
        {
          "name": "index",
          "type": "uint256"
        }
      ],
      "name": "tokenByIndex",
      "outputs": [
        {
          "name": "",
          "type": "uint256"
        }
      ],
      "payable": false,
      "stateMutability": "view",
      "type": "function"
    },
    {
      "constant": true,
      "inputs": [
        {
          "name": "tokenId",
          "type": "uint256"
        }
      ],
      "name": "ownerOf",
      "outputs": [
        {
          "name": "",
          "type": "address"
        }
      ],
      "payable": false,
      "stateMutability": "view",
      "type": "function"
    },
    {
      "constant": true,
      "inputs": [
        {
          "name": "owner",
          "type": "address"
        }
      ],
      "name": "balanceOf",
      "outputs": [
        {
          "name": "",
          "type": "uint256"
        }
      ],
      "payable": false,
      "stateMutability": "view",
      "type": "function"
    },
    {
      "constant": true,
      "inputs": [],
      "name": "owner",
      "outputs": [
        {
          "name": "",
          "type": "address"
        }
      ],
      "payable": false,
      "stateMutability": "view",
      "type": "function"
    },
    {
      "constant": false,
      "inputs": [
        {
          "name": "to",
          "type": "address"
        },
        {
          "name": "approved",
          "type": "bool"
        }
      ],
      "name": "setApprovalForAll",
      "outputs": [],
      "payable": false,
      "stateMutability": "nonpayable",
      "type": "function"
    },
    {
      "constant": false,
      "inputs": [
        {
          "name": "from",
          "type": "address"
        },
        {
          "name": "to",
          "type": "address"
        },
        {
          "name": "tokenId",
          "type": "uint256"
        },
        {
          "name": "_data",
          "type": "bytes"
        }
      ],
      "name": "safeTransferFrom",
      "outputs": [],
      "payable": false,
      "stateMutability": "nonpayable",
      "type": "function"
    },
    {
      "constant": true,
      "inputs": [
        {
          "name": "owner",
          "type": "address"
        },
        {
          "name": "operator",
          "type": "address"
        }
      ],
      "name": "isApprovedForAll",
      "outputs": [
        {
          "name": "",
          "type": "bool"
        }
      ],
      "payable": false,
      "stateMutability": "view",
      "type": "function"
    },
    {
      "inputs": [],
      "payable": false,
      "stateMutability": "nonpayable",
      "type": "constructor"
    },
    {
      "payable": true,
      "stateMutability": "payable",
      "type": "fallback"
    },
    {
      "anonymous": false,
      "inputs": [
        {
          "indexed": true,
          "name": "tokenId",
          "type": "uint256"
        },
        {
          "indexed": true,
          "name": "name",
          "type": "string"
        },
        {
          "indexed": false,
          "name": "no",
          "type": "uint256"
        },
        {
          "indexed": false,
          "name": "url",
          "type": "string"
        },
        {
          "indexed": false,
          "name": "holder",
          "type": "address"
        },
        {
          "indexed": false,
          "name": "issuer",
          "type": "address"
        },
        {
          "indexed": false,
          "name": "exchangable",
          "type": "bool"
        },
        {
          "indexed": false,
          "name": "authorized",
          "type": "bool"
        },
        {
          "indexed": false,
          "name": "date",
          "type": "uint256"
        },
        {
          "indexed": false,
          "name": "now",
          "type": "uint256"
        }
      ],
      "name": "NewCert",
      "type": "event"
    },
    {
      "anonymous": false,
      "inputs": [
        {
          "indexed": false,
          "name": "tokenId",
          "type": "uint256"
        }
      ],
      "name": "BurnCert",
      "type": "event"
    },
    {
      "anonymous": false,
      "inputs": [
        {
          "indexed": false,
          "name": "issuer",
          "type": "address"
        },
        {
          "indexed": false,
          "name": "num",
          "type": "uint256"
        }
      ],
      "name": "MintEmptyCert",
      "type": "event"
    },
    {
      "anonymous": false,
      "inputs": [
        {
          "indexed": true,
          "name": "issuer",
          "type": "address"
        },
        {
          "indexed": false,
          "name": "name",
          "type": "string"
        },
        {
          "indexed": false,
          "name": "url",
          "type": "string"
        }
      ],
      "name": "OrgAuthorize",
      "type": "event"
    },
    {
      "anonymous": false,
      "inputs": [
        {
          "indexed": true,
          "name": "issuer",
          "type": "address"
        }
      ],
      "name": "OrgDeauthorize",
      "type": "event"
    },
    {
      "anonymous": false,
      "inputs": [
        {
          "indexed": false,
          "name": "tokenId",
          "type": "uint256"
        },
        {
          "indexed": false,
          "name": "sig",
          "type": "string"
        }
      ],
      "name": "AddSig",
      "type": "event"
    },
    {
      "anonymous": false,
      "inputs": [
        {
          "indexed": true,
          "name": "from",
          "type": "address"
        },
        {
          "indexed": true,
          "name": "to",
          "type": "address"
        },
        {
          "indexed": true,
          "name": "tokenId",
          "type": "uint256"
        }
      ],
      "name": "Transfer",
      "type": "event"
    },
    {
      "anonymous": false,
      "inputs": [
        {
          "indexed": true,
          "name": "owner",
          "type": "address"
        },
        {
          "indexed": true,
          "name": "approved",
          "type": "address"
        },
        {
          "indexed": true,
          "name": "tokenId",
          "type": "uint256"
        }
      ],
      "name": "Approval",
      "type": "event"
    },
    {
      "anonymous": false,
      "inputs": [
        {
          "indexed": true,
          "name": "owner",
          "type": "address"
        },
        {
          "indexed": true,
          "name": "operator",
          "type": "address"
        },
        {
          "indexed": false,
          "name": "approved",
          "type": "bool"
        }
      ],
      "name": "ApprovalForAll",
      "type": "event"
    },
    {
      "constant": false,
      "inputs": [
        {
          "name": "_fee",
          "type": "uint256"
        }
      ],
      "name": "changeFee",
      "outputs": [],
      "payable": false,
      "stateMutability": "nonpayable",
      "type": "function"
    },
    {
      "constant": false,
      "inputs": [
        {
          "name": "_name",
          "type": "string"
        },
        {
          "name": "_holder",
          "type": "address"
        },
        {
          "name": "_url",
          "type": "string"
        },
        {
          "name": "_exchangable",
          "type": "bool"
        },
        {
          "name": "_date",
          "type": "uint256"
        }
      ],
      "name": "mintCert",
      "outputs": [
        {
          "name": "",
          "type": "uint256"
        }
      ],
      "payable": true,
      "stateMutability": "payable",
      "type": "function"
    },
    {
      "constant": false,
      "inputs": [
        {
          "name": "_tokenId",
          "type": "uint256"
        }
      ],
      "name": "burnCert",
      "outputs": [],
      "payable": false,
      "stateMutability": "nonpayable",
      "type": "function"
    },
    {
      "constant": false,
      "inputs": [
        {
          "name": "_tokenId",
          "type": "uint256"
        },
        {
          "name": "_to",
          "type": "address"
        }
      ],
      "name": "transferOwnership",
      "outputs": [],
      "payable": false,
      "stateMutability": "nonpayable",
      "type": "function"
    },
    {
      "constant": true,
      "inputs": [],
      "name": "getTotalCertCount",
      "outputs": [
        {
          "name": "",
          "type": "uint256"
        }
      ],
      "payable": false,
      "stateMutability": "view",
      "type": "function"
    },
    {
      "constant": true,
      "inputs": [
        {
          "name": "_tokenId",
          "type": "uint256"
        }
      ],
      "name": "getCert",
      "outputs": [
        {
          "name": "",
          "type": "uint256"
        },
        {
          "name": "",
          "type": "string"
        },
        {
          "name": "",
          "type": "uint256"
        },
        {
          "name": "",
          "type": "address"
        },
        {
          "name": "",
          "type": "string"
        },
        {
          "name": "",
          "type": "address"
        },
        {
          "name": "",
          "type": "uint256"
        },
        {
          "name": "",
          "type": "uint256"
        },
        {
          "name": "",
          "type": "bool"
        },
        {
          "name": "",
          "type": "bool"
        }
      ],
      "payable": false,
      "stateMutability": "view",
      "type": "function"
    },
    {
      "constant": true,
      "inputs": [
        {
          "name": "_issuer",
          "type": "address"
        }
      ],
      "name": "isAuthorized",
      "outputs": [
        {
          "name": "",
          "type": "bool"
        }
      ],
      "payable": false,
      "stateMutability": "view",
      "type": "function"
    },
    {
      "constant": true,
      "inputs": [
        {
          "name": "_issuer",
          "type": "address"
        }
      ],
      "name": "getIsserInfo",
      "outputs": [
        {
          "name": "",
          "type": "string"
        },
        {
          "name": "",
          "type": "address"
        },
        {
          "name": "",
          "type": "string"
        }
      ],
      "payable": false,
      "stateMutability": "view",
      "type": "function"
    },
    {
      "constant": false,
      "inputs": [
        {
          "name": "_issuer",
          "type": "address"
        },
        {
          "name": "_num",
          "type": "uint256"
        }
      ],
      "name": "mintEmptyCert",
      "outputs": [],
      "payable": false,
      "stateMutability": "nonpayable",
      "type": "function"
    },
    {
      "constant": false,
      "inputs": [
        {
          "name": "_issuer",
          "type": "address"
        },
        {
          "name": "_num",
          "type": "uint256"
        }
      ],
      "name": "buyEmptyCert",
      "outputs": [
        {
          "name": "",
          "type": "uint256"
        }
      ],
      "payable": true,
      "stateMutability": "payable",
      "type": "function"
    },
    {
      "constant": true,
      "inputs": [
        {
          "name": "_issuer",
          "type": "address"
        }
      ],
      "name": "returnEmptyCert",
      "outputs": [
        {
          "name": "",
          "type": "uint256"
        }
      ],
      "payable": false,
      "stateMutability": "view",
      "type": "function"
    },
    {
      "constant": false,
      "inputs": [
        {
          "name": "_name",
          "type": "string"
        },
        {
          "name": "_issuer",
          "type": "address"
        },
        {
          "name": "_url",
          "type": "string"
        }
      ],
      "name": "authorize",
      "outputs": [],
      "payable": false,
      "stateMutability": "nonpayable",
      "type": "function"
    },
    {
      "constant": false,
      "inputs": [
        {
          "name": "_issuer",
          "type": "address"
        }
      ],
      "name": "deauthorize",
      "outputs": [],
      "payable": false,
      "stateMutability": "nonpayable",
      "type": "function"
    },
    {
      "constant": false,
      "inputs": [
        {
          "name": "_tokenId",
          "type": "uint256"
        },
        {
          "name": "_sig",
          "type": "string"
        }
      ],
      "name": "addSig",
      "outputs": [],
      "payable": false,
      "stateMutability": "nonpayable",
      "type": "function"
    },
    {
      "constant": true,
      "inputs": [
        {
          "name": "_tokenId",
          "type": "uint256"
        },
        {
          "name": "_index",
          "type": "uint256"
        }
      ],
      "name": "getIndexedSig",
      "outputs": [
        {
          "name": "",
          "type": "string"
        }
      ],
      "payable": false,
      "stateMutability": "view",
      "type": "function"
    },
    {
      "constant": true,
      "inputs": [
        {
          "name": "_tokenId",
          "type": "uint256"
        }
      ],
      "name": "getLatestSig",
      "outputs": [
        {
          "name": "",
          "type": "string"
        }
      ],
      "payable": false,
      "stateMutability": "view",
      "type": "function"
    },
    {
      "constant": false,
      "inputs": [],
      "name": "changeOwner",
      "outputs": [],
      "payable": false,
      "stateMutability": "nonpayable",
      "type": "function"
    }
  ],
  "bytecode": "0x60806040523480156200001157600080fd5b506200004f6301ffc9a77c0100000000000000000000000000000000000000000000000000000000026200011f640100000000026401000000009004565b6200008c6380ac58cd7c0100000000000000000000000000000000000000000000000000000000026200011f640100000000026401000000009004565b620000c963780e9d637c0100000000000000000000000000000000000000000000000000000000026200011f640100000000026401000000009004565b33600e60006101000a81548173ffffffffffffffffffffffffffffffffffffffff021916908373ffffffffffffffffffffffffffffffffffffffff16021790555067016345785d8a0000600f8190555062000244565b63ffffffff7c010000000000000000000000000000000000000000000000000000000002817bffffffffffffffffffffffffffffffffffffffffffffffffffffffff19161415620001d8576040517f08c379a000000000000000000000000000000000000000000000000000000000815260040180806020018281038252601c8152602001807f4552433136353a20696e76616c696420696e746572666163652069640000000081525060200191505060405180910390fd5b6001600080837bffffffffffffffffffffffffffffffffffffffffffffffffffffffff19167bffffffffffffffffffffffffffffffffffffffffffffffffffffffff1916815260200190815260200160002060006101000a81548160ff02191690831515021790555050565b615c8b80620002546000396000f3fe6080604052600436106101f5576000357c01000000000000000000000000000000000000000000000000000000009004806362a094771161011f57806396dc0fa0116100b2578063b88d4fde11610081578063b88d4fde1461104f578063e985e9c514611161578063f013bffb146111ea578063fe9fbb8014611353576101f5565b806396dc0fa014610d24578063a22cb46514610d86578063b449e71614610de3578063b854e07114610f9b576101f5565b806389121ae9116100ee57806389121ae914610a4157806389b07f0d14610bc05780638ca5726514610c925780638da5cb5b14610ccd576101f5565b806362a094771461090f5780636352211e146109265780636a1db1bf146109a157806370a08231146109dc576101f5565b806327c97fa5116101975780634679cdaa116101665780634679cdaa1461077c5780634f6ccce7146107a757806354469eeb146107f65780635e310204146108b4576101f5565b806327c97fa5146105e657806329507f73146106375780632f745c591461069257806342842e0e14610701576101f5565b806318160ddd116101d357806318160ddd1461033f5780631fd28db01461036a578063220edeb01461050657806323b872dd1461056b576101f5565b806301ffc9a7146101f7578063081812fc14610269578063095ea7b3146102e4575b005b34801561020357600080fd5b5061024f6004803603602081101561021a57600080fd5b8101908080357bffffffffffffffffffffffffffffffffffffffffffffffffffffffff191690602001909291905050506113bc565b604051808215151515815260200191505060405180910390f35b34801561027557600080fd5b506102a26004803603602081101561028c57600080fd5b8101908080359060200190929190505050611423565b604051808273ffffffffffffffffffffffffffffffffffffffff1673ffffffffffffffffffffffffffffffffffffffff16815260200191505060405180910390f35b3480156102f057600080fd5b5061033d6004803603604081101561030757600080fd5b81019080803573ffffffffffffffffffffffffffffffffffffffff169060200190929190803590602001909291905050506114be565b005b34801561034b57600080fd5b50610354611697565b6040518082815260200191505060405180910390f35b6104f0600480360360a081101561038057600080fd5b810190808035906020019064010000000081111561039d57600080fd5b8201836020820111156103af57600080fd5b803590602001918460018302840111640100000000831117156103d157600080fd5b91908080601f016020809104026020016040519081016040528093929190818152602001838380828437600081840152601f19601f820116905080830192505050505050509192919290803573ffffffffffffffffffffffffffffffffffffffff1690602001909291908035906020019064010000000081111561045457600080fd5b82018360208201111561046657600080fd5b8035906020019184600183028401116401000000008311171561048857600080fd5b91908080601f016020809104026020016040519081016040528093929190818152602001838380828437600081840152601f19601f820116905080830192505050505050509192919290803515159060200190929190803590602001909291905050506116a4565b6040518082815260200191505060405180910390f35b34801561051257600080fd5b506105556004803603602081101561052957600080fd5b81019080803573ffffffffffffffffffffffffffffffffffffffff169060200190929190505050611e79565b6040518082815260200191505060405180910390f35b34801561057757600080fd5b506105e46004803603606081101561058e57600080fd5b81019080803573ffffffffffffffffffffffffffffffffffffffff169060200190929190803573ffffffffffffffffffffffffffffffffffffffff16906020019092919080359060200190929190505050611ec2565b005b3480156105f257600080fd5b506106356004803603602081101561060957600080fd5b81019080803573ffffffffffffffffffffffffffffffffffffffff169060200190929190505050611f31565b005b34801561064357600080fd5b506106906004803603604081101561065a57600080fd5b8101908080359060200190929190803573ffffffffffffffffffffffffffffffffffffffff169060200190929190505050612182565b005b34801561069e57600080fd5b506106eb600480360360408110156106b557600080fd5b81019080803573ffffffffffffffffffffffffffffffffffffffff16906020019092919080359060200190929190505050612757565b6040518082815260200191505060405180910390f35b34801561070d57600080fd5b5061077a6004803603606081101561072457600080fd5b81019080803573ffffffffffffffffffffffffffffffffffffffff169060200190929190803573ffffffffffffffffffffffffffffffffffffffff16906020019092919080359060200190929190505050612816565b005b34801561078857600080fd5b50610791612836565b6040518082815260200191505060405180910390f35b3480156107b357600080fd5b506107e0600480360360208110156107ca57600080fd5b8101908080359060200190929190505050612845565b6040518082815260200191505060405180910390f35b34801561080257600080fd5b506108396004803603604081101561081957600080fd5b8101908080359060200190929190803590602001909291905050506128c5565b6040518080602001828103825283818151815260200191508051906020019080838360005b8381101561087957808201518184015260208101905061085e565b50505050905090810190601f1680156108a65780820380516001836020036101000a031916815260200191505b509250505060405180910390f35b3480156108c057600080fd5b5061090d600480360360408110156108d757600080fd5b81019080803573ffffffffffffffffffffffffffffffffffffffff16906020019092919080359060200190929190505050612995565b005b34801561091b57600080fd5b50610924612b62565b005b34801561093257600080fd5b5061095f6004803603602081101561094957600080fd5b8101908080359060200190929190505050612c68565b604051808273ffffffffffffffffffffffffffffffffffffffff1673ffffffffffffffffffffffffffffffffffffffff16815260200191505060405180910390f35b3480156109ad57600080fd5b506109da600480360360208110156109c457600080fd5b8101908080359060200190929190505050612d30565b005b3480156109e857600080fd5b50610a2b600480360360208110156109ff57600080fd5b81019080803573ffffffffffffffffffffffffffffffffffffffff169060200190929190505050612dfd565b6040518082815260200191505060405180910390f35b348015610a4d57600080fd5b50610bbe60048036036060811015610a6457600080fd5b8101908080359060200190640100000000811115610a8157600080fd5b820183602082011115610a9357600080fd5b80359060200191846001830284011164010000000083111715610ab557600080fd5b91908080601f016020809104026020016040519081016040528093929190818152602001838380828437600081840152601f19601f820116905080830192505050505050509192919290803573ffffffffffffffffffffffffffffffffffffffff16906020019092919080359060200190640100000000811115610b3857600080fd5b820183602082011115610b4a57600080fd5b80359060200191846001830284011164010000000083111715610b6c57600080fd5b91908080601f016020809104026020016040519081016040528093929190818152602001838380828437600081840152601f19601f820116905080830192505050505050509192919290505050612ed2565b005b348015610bcc57600080fd5b50610c9060048036036040811015610be357600080fd5b810190808035906020019092919080359060200190640100000000811115610c0a57600080fd5b820183602082011115610c1c57600080fd5b80359060200191846001830284011164010000000083111715610c3e57600080fd5b91908080601f016020809104026020016040519081016040528093929190818152602001838380828437600081840152601f19601f8201169050808301925050505050505091929192905050506131ef565b005b348015610c9e57600080fd5b50610ccb60048036036020811015610cb557600080fd5b8101908080359060200190929190505050613703565b005b348015610cd957600080fd5b50610ce2613c7c565b604051808273ffffffffffffffffffffffffffffffffffffffff1673ffffffffffffffffffffffffffffffffffffffff16815260200191505060405180910390f35b610d7060048036036040811015610d3a57600080fd5b81019080803573ffffffffffffffffffffffffffffffffffffffff16906020019092919080359060200190929190505050613ca2565b6040518082815260200191505060405180910390f35b348015610d9257600080fd5b50610de160048036036040811015610da957600080fd5b81019080803573ffffffffffffffffffffffffffffffffffffffff169060200190929190803515159060200190929190505050613eb5565b005b348015610def57600080fd5b50610e1c60048036036020811015610e0657600080fd5b8101908080359060200190929190505050614058565b604051808b8152602001806020018a81526020018973ffffffffffffffffffffffffffffffffffffffff1673ffffffffffffffffffffffffffffffffffffffff168152602001806020018873ffffffffffffffffffffffffffffffffffffffff1673ffffffffffffffffffffffffffffffffffffffff168152602001878152602001868152602001851515151581526020018415151515815260200183810383528c818151815260200191508051906020019080838360005b83811015610ef0578082015181840152602081019050610ed5565b50505050905090810190601f168015610f1d5780820380516001836020036101000a031916815260200191505b50838103825289818151815260200191508051906020019080838360005b83811015610f56578082015181840152602081019050610f3b565b50505050905090810190601f168015610f835780820380516001836020036101000a031916815260200191505b509c5050505050505050505050505060405180910390f35b348015610fa757600080fd5b50610fd460048036036020811015610fbe57600080fd5b810190808035906020019092919050505061433c565b6040518080602001828103825283818151815260200191508051906020019080838360005b83811015611014578082015181840152602081019050610ff9565b50505050905090810190601f1680156110415780820380516001836020036101000a031916815260200191505b509250505060405180910390f35b34801561105b57600080fd5b5061115f6004803603608081101561107257600080fd5b81019080803573ffffffffffffffffffffffffffffffffffffffff169060200190929190803573ffffffffffffffffffffffffffffffffffffffff16906020019092919080359060200190929190803590602001906401000000008111156110d957600080fd5b8201836020820111156110eb57600080fd5b8035906020019184600183028401116401000000008311171561110d57600080fd5b91908080601f016020809104026020016040519081016040528093929190818152602001838380828437600081840152601f19601f820116905080830192505050505050509192919290505050614425565b005b34801561116d57600080fd5b506111d06004803603604081101561118457600080fd5b81019080803573ffffffffffffffffffffffffffffffffffffffff169060200190929190803573ffffffffffffffffffffffffffffffffffffffff169060200190929190505050614497565b604051808215151515815260200191505060405180910390f35b3480156111f657600080fd5b506112396004803603602081101561120d57600080fd5b81019080803573ffffffffffffffffffffffffffffffffffffffff16906020019092919050505061452b565b60405180806020018473ffffffffffffffffffffffffffffffffffffffff1673ffffffffffffffffffffffffffffffffffffffff16815260200180602001838103835286818151815260200191508051906020019080838360005b838110156112af578082015181840152602081019050611294565b50505050905090810190601f1680156112dc5780820380516001836020036101000a031916815260200191505b50838103825284818151815260200191508051906020019080838360005b838110156113155780820151818401526020810190506112fa565b50505050905090810190601f1680156113425780820380516001836020036101000a031916815260200191505b509550505050505060405180910390f35b34801561135f57600080fd5b506113a26004803603602081101561137657600080fd5b81019080803573ffffffffffffffffffffffffffffffffffffffff16906020019092919050505061475d565b604051808215151515815260200191505060405180910390f35b6000806000837bffffffffffffffffffffffffffffffffffffffffffffffffffffffff19167bffffffffffffffffffffffffffffffffffffffffffffffffffffffff1916815260200190815260200160002060009054906101000a900460ff169050919050565b600061142e826147b6565b611483576040517f08c379a000000000000000000000000000000000000000000000000000000000815260040180806020018281038252602c815260200180615b46602c913960400191505060405180910390fd5b6002600083815260200190815260200160002060009054906101000a900473ffffffffffffffffffffffffffffffffffffffff169050919050565b60006114c982612c68565b90508073ffffffffffffffffffffffffffffffffffffffff168373ffffffffffffffffffffffffffffffffffffffff161415611550576040517f08c379a0000000000000000000000000000000000000000000000000000000008152600401808060200182810382526021815260200180615b9b6021913960400191505060405180910390fd5b8073ffffffffffffffffffffffffffffffffffffffff163373ffffffffffffffffffffffffffffffffffffffff161480611590575061158f8133614497565b5b6115e5576040517f08c379a0000000000000000000000000000000000000000000000000000000008152600401808060200182810382526038815260200180615a9a6038913960400191505060405180910390fd5b826002600084815260200190815260200160002060006101000a81548173ffffffffffffffffffffffffffffffffffffffff021916908373ffffffffffffffffffffffffffffffffffffffff160217905550818373ffffffffffffffffffffffffffffffffffffffff168273ffffffffffffffffffffffffffffffffffffffff167f8c5be1e5ebec7d5bd14f71427d1e84f3dd0314c0f7b2291e5b200ac8c7c3b92560405160405180910390a4505050565b6000600780549050905090565b6000803390506001600b60008373ffffffffffffffffffffffffffffffffffffffff1673ffffffffffffffffffffffffffffffffffffffff168152602001908152602001600020541015611743576040517f08c379a0000000000000000000000000000000000000000000000000000000008152600401808060200182810382526022815260200180615c196022913960400191505060405180910390fd5b60006117986001600b60008573ffffffffffffffffffffffffffffffffffffffff1673ffffffffffffffffffffffffffffffffffffffff1681526020019081526020016000205461482890919063ffffffff16565b905080600b60008473ffffffffffffffffffffffffffffffffffffffff1673ffffffffffffffffffffffffffffffffffffffff168152602001908152602001600020819055506000600960008473ffffffffffffffffffffffffffffffffffffffff1673ffffffffffffffffffffffffffffffffffffffff168152602001908152602001600020896040518082805190602001908083835b602083106118535780518252602082019150602081019050602083039250611830565b6001836020036101000a038019825116818451168082178552505050505050905001915050908152602001604051809103902080549050905060006118978461475d565b905060008a898b878b8b426040516020018088805190602001908083835b602083106118d857805182526020820191506020810190506020830392506118b5565b6001836020036101000a03801982511681845116808217855250505050505090500187805190602001908083835b602083106119295780518252602082019150602081019050602083039250611906565b6001836020036101000a0380198251168184511680821785525050505050509050018673ffffffffffffffffffffffffffffffffffffffff1673ffffffffffffffffffffffffffffffffffffffff166c010000000000000000000000000281526014018573ffffffffffffffffffffffffffffffffffffffff1673ffffffffffffffffffffffffffffffffffffffff166c0100000000000000000000000002815260140184151515157f010000000000000000000000000000000000000000000000000000000000000002815260010183815260200182815260200197505050505050505060405160208183030381529060405280519060200120600190049050611a326157d8565b6040518061014001604052808381526020018d81526020018581526020018773ffffffffffffffffffffffffffffffffffffffff1681526020018b81526020018c73ffffffffffffffffffffffffffffffffffffffff1681526020018981526020014281526020018a151581526020018415158152509050600960008773ffffffffffffffffffffffffffffffffffffffff1673ffffffffffffffffffffffffffffffffffffffff1681526020019081526020016000208c6040518082805190602001908083835b60208310611b1d5780518252602082019150602081019050602083039250611afa565b6001836020036101000a038019825116818451168082178552505050505050905001915050908152602001604051809103902082908060018154018082558091505090600182039060005260206000200160009091929091909150555080600a6000848152602001908152602001600020600082015181600001556020820151816001019080519060200190611bb492919061585b565b506040820151816002015560608201518160030160006101000a81548173ffffffffffffffffffffffffffffffffffffffff021916908373ffffffffffffffffffffffffffffffffffffffff1602179055506080820151816004019080519060200190611c2292919061585b565b5060a08201518160050160006101000a81548173ffffffffffffffffffffffffffffffffffffffff021916908373ffffffffffffffffffffffffffffffffffffffff16021790555060c0820151816006015560e082015181600701556101008201518160080160006101000a81548160ff0219169083151502179055506101208201518160080160016101000a81548160ff021916908315150217905550905050611ccd8b836148b1565b8b6040518082805190602001908083835b60208310611d015780518252602082019150602081019050602083039250611cde565b6001836020036101000a0380198251168184511680821785525050505050509050019150506040518091039020827f0eec318e386a2a8183a48757c1fd0c00f0af2693b1c5768e6bb9ed1f2204923a868d8f8b8f8a8960c001514260405180898152602001806020018873ffffffffffffffffffffffffffffffffffffffff1673ffffffffffffffffffffffffffffffffffffffff1681526020018773ffffffffffffffffffffffffffffffffffffffff1673ffffffffffffffffffffffffffffffffffffffff1681526020018615151515815260200185151515158152602001848152602001838152602001828103825289818151815260200191508051906020019080838360005b83811015611e26578082015181840152602081019050611e0b565b50505050905090810190601f168015611e535780820380516001836020036101000a031916815260200191505b50995050505050505050505060405180910390a381965050505050505095945050505050565b6000600b60008373ffffffffffffffffffffffffffffffffffffffff1673ffffffffffffffffffffffffffffffffffffffff168152602001908152602001600020549050919050565b611ecc33826148d2565b611f21576040517f08c379a0000000000000000000000000000000000000000000000000000000008152600401808060200182810382526031815260200180615bbc6031913960400191505060405180910390fd5b611f2c8383836149c6565b505050565b600e60009054906101000a900473ffffffffffffffffffffffffffffffffffffffff1673ffffffffffffffffffffffffffffffffffffffff163373ffffffffffffffffffffffffffffffffffffffff1614611ff4576040517f08c379a000000000000000000000000000000000000000000000000000000000815260040180806020018281038252600a8152602001807f4f6e6c79204f776e65720000000000000000000000000000000000000000000081525060200191505060405180910390fd5b611ffc6158db565b6040518060800160405280604051806020016040528060008152508152602001600073ffffffffffffffffffffffffffffffffffffffff16815260200160405180602001604052806000815250815260200160001515815250905080600c60008473ffffffffffffffffffffffffffffffffffffffff1673ffffffffffffffffffffffffffffffffffffffff16815260200190815260200160002060008201518160000190805190602001906120b392919061585b565b5060208201518160010160006101000a81548173ffffffffffffffffffffffffffffffffffffffff021916908373ffffffffffffffffffffffffffffffffffffffff160217905550604082015181600201908051906020019061211792919061585b565b5060608201518160030160006101000a81548160ff0219169083151502179055509050508173ffffffffffffffffffffffffffffffffffffffff167fad4ac2981d4591e951ef38bb6042f68ce15e669dd52be2333e5c1ab97abe684860405160405180910390a25050565b61218a6157d8565b600a60008481526020019081526020016000206040518061014001604052908160008201548152602001600182018054600181600116156101000203166002900480601f01602080910402602001604051908101604052809291908181526020018280546001816001161561010002031660029004801561224c5780601f106122215761010080835404028352916020019161224c565b820191906000526020600020905b81548152906001019060200180831161222f57829003601f168201915b50505050508152602001600282015481526020016003820160009054906101000a900473ffffffffffffffffffffffffffffffffffffffff1673ffffffffffffffffffffffffffffffffffffffff1673ffffffffffffffffffffffffffffffffffffffff168152602001600482018054600181600116156101000203166002900480601f01602080910402602001604051908101604052809291908181526020018280546001816001161561010002031660029004801561234e5780601f106123235761010080835404028352916020019161234e565b820191906000526020600020905b81548152906001019060200180831161233157829003601f168201915b505050505081526020016005820160009054906101000a900473ffffffffffffffffffffffffffffffffffffffff1673ffffffffffffffffffffffffffffffffffffffff1673ffffffffffffffffffffffffffffffffffffffff16815260200160068201548152602001600782015481526020016008820160009054906101000a900460ff161515151581526020016008820160019054906101000a900460ff1615151515815250509050600e60009054906101000a900473ffffffffffffffffffffffffffffffffffffffff1673ffffffffffffffffffffffffffffffffffffffff163373ffffffffffffffffffffffffffffffffffffffff1614806124845750806060015173ffffffffffffffffffffffffffffffffffffffff163373ffffffffffffffffffffffffffffffffffffffff16145b806124be57508060a0015173ffffffffffffffffffffffffffffffffffffffff163373ffffffffffffffffffffffffffffffffffffffff16145b612530576040517f08c379a000000000000000000000000000000000000000000000000000000000815260040180806020018281038252601c8152602001807f4255524e204552524f522c205065726d697373696f6e204572726f720000000081525060200191505060405180910390fd5b600a600084815260200190815260200160002060080160009054906101000a900460ff166125c6576040517f08c379a000000000000000000000000000000000000000000000000000000000815260040180806020018281038252601d8152602001807f5468697320746f6b656e2063616e27742062652065786368616e67656400000081525060200191505060405180910390fd5b6125d13383856149c6565b818160a0019073ffffffffffffffffffffffffffffffffffffffff16908173ffffffffffffffffffffffffffffffffffffffff168152505080600a600085815260200190815260200160002060008201518160000155602082015181600101908051906020019061264392919061585b565b506040820151816002015560608201518160030160006101000a81548173ffffffffffffffffffffffffffffffffffffffff021916908373ffffffffffffffffffffffffffffffffffffffff16021790555060808201518160040190805190602001906126b192919061585b565b5060a08201518160050160006101000a81548173ffffffffffffffffffffffffffffffffffffffff021916908373ffffffffffffffffffffffffffffffffffffffff16021790555060c0820151816006015560e082015181600701556101008201518160080160006101000a81548160ff0219169083151502179055506101208201518160080160016101000a81548160ff021916908315150217905550905050505050565b600061276283612dfd565b82106127b9576040517f08c379a000000000000000000000000000000000000000000000000000000000815260040180806020018281038252602b8152602001806159ed602b913960400191505060405180910390fd5b600560008473ffffffffffffffffffffffffffffffffffffffff1673ffffffffffffffffffffffffffffffffffffffff168152602001908152602001600020828154811061280357fe5b9060005260206000200154905092915050565b61283183838360405180602001604052806000815250614425565b505050565b6000612840611697565b905090565b600061284f611697565b82106128a6576040517f08c379a000000000000000000000000000000000000000000000000000000000815260040180806020018281038252602c815260200180615bed602c913960400191505060405180910390fd5b600782815481106128b357fe5b90600052602060002001549050919050565b606080600d600085815260200190815260200160002083815481106128e657fe5b906000526020600020018054600181600116156101000203166002900480601f0160208091040260200160405190810160405280929190818152602001828054600181600116156101000203166002900480156129845780601f1061295957610100808354040283529160200191612984565b820191906000526020600020905b81548152906001019060200180831161296757829003601f168201915b505050505090508091505092915050565b600e60009054906101000a900473ffffffffffffffffffffffffffffffffffffffff1673ffffffffffffffffffffffffffffffffffffffff163373ffffffffffffffffffffffffffffffffffffffff1614612a58576040517f08c379a000000000000000000000000000000000000000000000000000000000815260040180806020018281038252600a8152602001807f4f6e6c79204f776e65720000000000000000000000000000000000000000000081525060200191505060405180910390fd5b6000612aac82600b60008673ffffffffffffffffffffffffffffffffffffffff1673ffffffffffffffffffffffffffffffffffffffff168152602001908152602001600020546149ea90919063ffffffff16565b905080600b60008573ffffffffffffffffffffffffffffffffffffffff1673ffffffffffffffffffffffffffffffffffffffff168152602001908152602001600020819055507f8b16a4938fae04e10173f38b620861e4c8056cd5627a6f36a10fd891c71390b78383604051808373ffffffffffffffffffffffffffffffffffffffff1673ffffffffffffffffffffffffffffffffffffffff1681526020018281526020019250505060405180910390a1505050565b600e60009054906101000a900473ffffffffffffffffffffffffffffffffffffffff1673ffffffffffffffffffffffffffffffffffffffff163373ffffffffffffffffffffffffffffffffffffffff1614612c25576040517f08c379a000000000000000000000000000000000000000000000000000000000815260040180806020018281038252600a8152602001807f4f6e6c79204f776e65720000000000000000000000000000000000000000000081525060200191505060405180910390fd5b33600e60006101000a81548173ffffffffffffffffffffffffffffffffffffffff021916908373ffffffffffffffffffffffffffffffffffffffff160217905550565b6000806001600084815260200190815260200160002060009054906101000a900473ffffffffffffffffffffffffffffffffffffffff169050600073ffffffffffffffffffffffffffffffffffffffff168173ffffffffffffffffffffffffffffffffffffffff161415612d27576040517f08c379a0000000000000000000000000000000000000000000000000000000008152600401808060200182810382526029815260200180615afc6029913960400191505060405180910390fd5b80915050919050565b600e60009054906101000a900473ffffffffffffffffffffffffffffffffffffffff1673ffffffffffffffffffffffffffffffffffffffff163373ffffffffffffffffffffffffffffffffffffffff1614612df3576040517f08c379a000000000000000000000000000000000000000000000000000000000815260040180806020018281038252600a8152602001807f4f6e6c79204f776e65720000000000000000000000000000000000000000000081525060200191505060405180910390fd5b80600f8190555050565b60008073ffffffffffffffffffffffffffffffffffffffff168273ffffffffffffffffffffffffffffffffffffffff161415612e84576040517f08c379a000000000000000000000000000000000000000000000000000000000815260040180806020018281038252602a815260200180615ad2602a913960400191505060405180910390fd5b612ecb600360008473ffffffffffffffffffffffffffffffffffffffff1673ffffffffffffffffffffffffffffffffffffffff168152602001908152602001600020614a72565b9050919050565b600e60009054906101000a900473ffffffffffffffffffffffffffffffffffffffff1673ffffffffffffffffffffffffffffffffffffffff163373ffffffffffffffffffffffffffffffffffffffff1614612f95576040517f08c379a000000000000000000000000000000000000000000000000000000000815260040180806020018281038252600a8152602001807f4f6e6c79204f776e65720000000000000000000000000000000000000000000081525060200191505060405180910390fd5b612f9d6158db565b60405180608001604052808581526020018473ffffffffffffffffffffffffffffffffffffffff16815260200183815260200160011515815250905080600c60008573ffffffffffffffffffffffffffffffffffffffff1673ffffffffffffffffffffffffffffffffffffffff168152602001908152602001600020600082015181600001908051906020019061303592919061585b565b5060208201518160010160006101000a81548173ffffffffffffffffffffffffffffffffffffffff021916908373ffffffffffffffffffffffffffffffffffffffff160217905550604082015181600201908051906020019061309992919061585b565b5060608201518160030160006101000a81548160ff021916908315150217905550905050806020015173ffffffffffffffffffffffffffffffffffffffff167fbe0718aa0f2a231d00e2f42f49531b2c4a983f9afeb0ce1da04e1427f5181ba282600001518360400151604051808060200180602001838103835285818151815260200191508051906020019080838360005b8381101561314757808201518184015260208101905061312c565b50505050905090810190601f1680156131745780820380516001836020036101000a031916815260200191505b50838103825284818151815260200191508051906020019080838360005b838110156131ad578082015181840152602081019050613192565b50505050905090810190601f1680156131da5780820380516001836020036101000a031916815260200191505b5094505050505060405180910390a250505050565b6131f76157d8565b600a60008481526020019081526020016000206040518061014001604052908160008201548152602001600182018054600181600116156101000203166002900480601f0160208091040260200160405190810160405280929190818152602001828054600181600116156101000203166002900480156132b95780601f1061328e576101008083540402835291602001916132b9565b820191906000526020600020905b81548152906001019060200180831161329c57829003601f168201915b50505050508152602001600282015481526020016003820160009054906101000a900473ffffffffffffffffffffffffffffffffffffffff1673ffffffffffffffffffffffffffffffffffffffff1673ffffffffffffffffffffffffffffffffffffffff168152602001600482018054600181600116156101000203166002900480601f0160208091040260200160405190810160405280929190818152602001828054600181600116156101000203166002900480156133bb5780601f10613390576101008083540402835291602001916133bb565b820191906000526020600020905b81548152906001019060200180831161339e57829003601f168201915b505050505081526020016005820160009054906101000a900473ffffffffffffffffffffffffffffffffffffffff1673ffffffffffffffffffffffffffffffffffffffff1673ffffffffffffffffffffffffffffffffffffffff16815260200160068201548152602001600782015481526020016008820160009054906101000a900460ff161515151581526020016008820160019054906101000a900460ff1615151515815250509050600073ffffffffffffffffffffffffffffffffffffffff168160a0015173ffffffffffffffffffffffffffffffffffffffff16141561350d576040517f08c379a000000000000000000000000000000000000000000000000000000000815260040180806020018281038252600c8152602001807f4e6f20737563682043657274000000000000000000000000000000000000000081525060200191505060405180910390fd5b600e60009054906101000a900473ffffffffffffffffffffffffffffffffffffffff1673ffffffffffffffffffffffffffffffffffffffff163373ffffffffffffffffffffffffffffffffffffffff16148061359857508060a0015173ffffffffffffffffffffffffffffffffffffffff163373ffffffffffffffffffffffffffffffffffffffff16145b61360a576040517f08c379a000000000000000000000000000000000000000000000000000000000815260040180806020018281038252601f8152602001807f41646420736967206572726f722c205065726d697373696f6e204572726f720081525060200191505060405180910390fd5b600d600084815260200190815260200160002082908060018154018082558091505090600182039060005260206000200160009091929091909150908051906020019061365892919061591b565b50507f0ebc7a36acf24c3a197dfaa20fb34b3b98cb330755200b7587265c9bc178e25183836040518083815260200180602001828103825283818151815260200191508051906020019080838360005b838110156136c35780820151818401526020810190506136a8565b50505050905090810190601f1680156136f05780820380516001836020036101000a031916815260200191505b50935050505060405180910390a1505050565b61370b6157d8565b600a60008381526020019081526020016000206040518061014001604052908160008201548152602001600182018054600181600116156101000203166002900480601f0160208091040260200160405190810160405280929190818152602001828054600181600116156101000203166002900480156137cd5780601f106137a2576101008083540402835291602001916137cd565b820191906000526020600020905b8154815290600101906020018083116137b057829003601f168201915b50505050508152602001600282015481526020016003820160009054906101000a900473ffffffffffffffffffffffffffffffffffffffff1673ffffffffffffffffffffffffffffffffffffffff1673ffffffffffffffffffffffffffffffffffffffff168152602001600482018054600181600116156101000203166002900480601f0160208091040260200160405190810160405280929190818152602001828054600181600116156101000203166002900480156138cf5780601f106138a4576101008083540402835291602001916138cf565b820191906000526020600020905b8154815290600101906020018083116138b257829003601f168201915b505050505081526020016005820160009054906101000a900473ffffffffffffffffffffffffffffffffffffffff1673ffffffffffffffffffffffffffffffffffffffff1673ffffffffffffffffffffffffffffffffffffffff16815260200160068201548152602001600782015481526020016008820160009054906101000a900460ff161515151581526020016008820160019054906101000a900460ff1615151515815250509050600e60009054906101000a900473ffffffffffffffffffffffffffffffffffffffff1673ffffffffffffffffffffffffffffffffffffffff163373ffffffffffffffffffffffffffffffffffffffff161480613a055750806060015173ffffffffffffffffffffffffffffffffffffffff163373ffffffffffffffffffffffffffffffffffffffff16145b80613a3f57508060a0015173ffffffffffffffffffffffffffffffffffffffff163373ffffffffffffffffffffffffffffffffffffffff16145b613ab1576040517f08c379a000000000000000000000000000000000000000000000000000000000815260040180806020018281038252601c8152602001807f4255524e204552524f522c205065726d697373696f6e204572726f720000000081525060200191505060405180910390fd5b613abf8160a0015183614a80565b60008160a0019073ffffffffffffffffffffffffffffffffffffffff16908173ffffffffffffffffffffffffffffffffffffffff168152505080600a6000848152602001908152602001600020600082015181600001556020820151816001019080519060200190613b3292919061585b565b506040820151816002015560608201518160030160006101000a81548173ffffffffffffffffffffffffffffffffffffffff021916908373ffffffffffffffffffffffffffffffffffffffff1602179055506080820151816004019080519060200190613ba092919061585b565b5060a08201518160050160006101000a81548173ffffffffffffffffffffffffffffffffffffffff021916908373ffffffffffffffffffffffffffffffffffffffff16021790555060c0820151816006015560e082015181600701556101008201518160080160006101000a81548160ff0219169083151502179055506101208201518160080160016101000a81548160ff0219169083151502179055509050507fd99b42071f0cc8b5e257f17d4c01e3ed9abd32df87ad8877df91e4e528ecb36b826040518082815260200191505060405180910390a15050565b600e60009054906101000a900473ffffffffffffffffffffffffffffffffffffffff1681565b6000808211613d19576040517f08c379a00000000000000000000000000000000000000000000000000000000081526004018080602001828103825260148152602001807f4e6565647320706f7369746976652076616c756500000000000000000000000081525060200191505060405180910390fd5b6000613d30600f5484614aba90919063ffffffff16565b9050803411613da7576040517f08c379a00000000000000000000000000000000000000000000000000000000081526004018080602001828103825260108152602001807f4e6f7420656e6f756768206d6f6e65790000000000000000000000000000000081525060200191505060405180910390fd5b600e60009054906101000a900473ffffffffffffffffffffffffffffffffffffffff1673ffffffffffffffffffffffffffffffffffffffff166108fc829081150290604051600060405180830381858888f19350505050158015613e0f573d6000803e3d6000fd5b506000613e6484600b60008873ffffffffffffffffffffffffffffffffffffffff1673ffffffffffffffffffffffffffffffffffffffff168152602001908152602001600020546149ea90919063ffffffff16565b905080600b60008773ffffffffffffffffffffffffffffffffffffffff1673ffffffffffffffffffffffffffffffffffffffff16815260200190815260200160002081905550809250505092915050565b3373ffffffffffffffffffffffffffffffffffffffff168273ffffffffffffffffffffffffffffffffffffffff161415613f57576040517f08c379a00000000000000000000000000000000000000000000000000000000081526004018080602001828103825260198152602001807f4552433732313a20617070726f766520746f2063616c6c65720000000000000081525060200191505060405180910390fd5b80600460003373ffffffffffffffffffffffffffffffffffffffff1673ffffffffffffffffffffffffffffffffffffffff16815260200190815260200160002060008473ffffffffffffffffffffffffffffffffffffffff1673ffffffffffffffffffffffffffffffffffffffff16815260200190815260200160002060006101000a81548160ff0219169083151502179055508173ffffffffffffffffffffffffffffffffffffffff163373ffffffffffffffffffffffffffffffffffffffff167f17307eab39ab6107e8899845ad3d59bd9653f200f220920489ca2b5937696c3183604051808215151515815260200191505060405180910390a35050565b60006060600080606060008060008060006140716157d8565b600a60008d81526020019081526020016000206040518061014001604052908160008201548152602001600182018054600181600116156101000203166002900480601f0160208091040260200160405190810160405280929190818152602001828054600181600116156101000203166002900480156141335780601f1061410857610100808354040283529160200191614133565b820191906000526020600020905b81548152906001019060200180831161411657829003601f168201915b50505050508152602001600282015481526020016003820160009054906101000a900473ffffffffffffffffffffffffffffffffffffffff1673ffffffffffffffffffffffffffffffffffffffff1673ffffffffffffffffffffffffffffffffffffffff168152602001600482018054600181600116156101000203166002900480601f0160208091040260200160405190810160405280929190818152602001828054600181600116156101000203166002900480156142355780601f1061420a57610100808354040283529160200191614235565b820191906000526020600020905b81548152906001019060200180831161421857829003601f168201915b505050505081526020016005820160009054906101000a900473ffffffffffffffffffffffffffffffffffffffff1673ffffffffffffffffffffffffffffffffffffffff1673ffffffffffffffffffffffffffffffffffffffff16815260200160068201548152602001600782015481526020016008820160009054906101000a900460ff161515151581526020016008820160019054906101000a900460ff1615151515815250509050806000015181602001518260400151836060015184608001518560a001518660c001518760e001518861010001518961012001518898508595509a509a509a509a509a509a509a509a509a509a50509193959799509193959799565b606060006001600d600085815260200190815260200160002080549050039050600d6000848152602001908152602001600020818154811061437a57fe5b906000526020600020018054600181600116156101000203166002900480601f0160208091040260200160405190810160405280929190818152602001828054600181600116156101000203166002900480156144185780601f106143ed57610100808354040283529160200191614418565b820191906000526020600020905b8154815290600101906020018083116143fb57829003601f168201915b5050505050915050919050565b614430848484611ec2565b61443c84848484614b40565b614491576040517f08c379a0000000000000000000000000000000000000000000000000000000008152600401808060200182810382526032815260200180615a186032913960400191505060405180910390fd5b50505050565b6000600460008473ffffffffffffffffffffffffffffffffffffffff1673ffffffffffffffffffffffffffffffffffffffff16815260200190815260200160002060008373ffffffffffffffffffffffffffffffffffffffff1673ffffffffffffffffffffffffffffffffffffffff16815260200190815260200160002060009054906101000a900460ff16905092915050565b6060600060606145396158db565b600c60008673ffffffffffffffffffffffffffffffffffffffff1673ffffffffffffffffffffffffffffffffffffffff168152602001908152602001600020604051806080016040529081600082018054600181600116156101000203166002900480601f01602080910402602001604051908101604052809291908181526020018280546001816001161561010002031660029004801561461c5780601f106145f15761010080835404028352916020019161461c565b820191906000526020600020905b8154815290600101906020018083116145ff57829003601f168201915b505050505081526020016001820160009054906101000a900473ffffffffffffffffffffffffffffffffffffffff1673ffffffffffffffffffffffffffffffffffffffff1673ffffffffffffffffffffffffffffffffffffffff168152602001600282018054600181600116156101000203166002900480601f0160208091040260200160405190810160405280929190818152602001828054600181600116156101000203166002900480156147145780601f106146e957610100808354040283529160200191614714565b820191906000526020600020905b8154815290600101906020018083116146f757829003601f168201915b505050505081526020016003820160009054906101000a900460ff1615151515815250509050806000015181602001518260400151829250809050935093509350509193909250565b6000600c60008373ffffffffffffffffffffffffffffffffffffffff1673ffffffffffffffffffffffffffffffffffffffff16815260200190815260200160002060030160009054906101000a900460ff169050919050565b6000806001600084815260200190815260200160002060009054906101000a900473ffffffffffffffffffffffffffffffffffffffff169050600073ffffffffffffffffffffffffffffffffffffffff168173ffffffffffffffffffffffffffffffffffffffff161415915050919050565b6000828211156148a0576040517f08c379a000000000000000000000000000000000000000000000000000000000815260040180806020018281038252601e8152602001807f536166654d6174683a207375627472616374696f6e206f766572666c6f77000081525060200191505060405180910390fd5b600082840390508091505092915050565b6148bb8282614d61565b6148c58282614f79565b6148ce81615040565b5050565b60006148dd826147b6565b614932576040517f08c379a000000000000000000000000000000000000000000000000000000000815260040180806020018281038252602c815260200180615a6e602c913960400191505060405180910390fd5b600061493d83612c68565b90508073ffffffffffffffffffffffffffffffffffffffff168473ffffffffffffffffffffffffffffffffffffffff1614806149ac57508373ffffffffffffffffffffffffffffffffffffffff1661499484611423565b73ffffffffffffffffffffffffffffffffffffffff16145b806149bd57506149bc8185614497565b5b91505092915050565b6149d183838361508c565b6149db83826152e7565b6149e58282614f79565b505050565b600080828401905083811015614a68576040517f08c379a000000000000000000000000000000000000000000000000000000000815260040180806020018281038252601b8152602001807f536166654d6174683a206164646974696f6e206f766572666c6f77000000000081525060200191505060405180910390fd5b8091505092915050565b600081600001549050919050565b614a8a8282615485565b614a9482826152e7565b60006006600083815260200190815260200160002081905550614ab681615614565b5050565b600080831415614acd5760009050614b3a565b6000828402905082848281614ade57fe5b0414614b35576040517f08c379a0000000000000000000000000000000000000000000000000000000008152600401808060200182810382526021815260200180615b256021913960400191505060405180910390fd5b809150505b92915050565b6000614b618473ffffffffffffffffffffffffffffffffffffffff166156ce565b614b6e5760019050614d59565b60008473ffffffffffffffffffffffffffffffffffffffff1663150b7a02338887876040518563ffffffff167c0100000000000000000000000000000000000000000000000000000000028152600401808573ffffffffffffffffffffffffffffffffffffffff1673ffffffffffffffffffffffffffffffffffffffff1681526020018473ffffffffffffffffffffffffffffffffffffffff1673ffffffffffffffffffffffffffffffffffffffff16815260200183815260200180602001828103825283818151815260200191508051906020019080838360005b83811015614c65578082015181840152602081019050614c4a565b50505050905090810190601f168015614c925780820380516001836020036101000a031916815260200191505b5095505050505050602060405180830381600087803b158015614cb457600080fd5b505af1158015614cc8573d6000803e3d6000fd5b505050506040513d6020811015614cde57600080fd5b8101908080519060200190929190505050905063150b7a027c0100000000000000000000000000000000000000000000000000000000027bffffffffffffffffffffffffffffffffffffffffffffffffffffffff1916817bffffffffffffffffffffffffffffffffffffffffffffffffffffffff1916149150505b949350505050565b600073ffffffffffffffffffffffffffffffffffffffff168273ffffffffffffffffffffffffffffffffffffffff161415614e04576040517f08c379a00000000000000000000000000000000000000000000000000000000081526004018080602001828103825260208152602001807f4552433732313a206d696e7420746f20746865207a65726f206164647265737381525060200191505060405180910390fd5b614e0d816147b6565b15614e80576040517f08c379a000000000000000000000000000000000000000000000000000000000815260040180806020018281038252601c8152602001807f4552433732313a20746f6b656e20616c7265616479206d696e7465640000000081525060200191505060405180910390fd5b816001600083815260200190815260200160002060006101000a81548173ffffffffffffffffffffffffffffffffffffffff021916908373ffffffffffffffffffffffffffffffffffffffff160217905550614f19600360008473ffffffffffffffffffffffffffffffffffffffff1673ffffffffffffffffffffffffffffffffffffffff1681526020019081526020016000206156e1565b808273ffffffffffffffffffffffffffffffffffffffff16600073ffffffffffffffffffffffffffffffffffffffff167fddf252ad1be2c89b69c2b068fc378daa952ba7f163c4a11628f55a4df523b3ef60405160405180910390a45050565b600560008373ffffffffffffffffffffffffffffffffffffffff1673ffffffffffffffffffffffffffffffffffffffff168152602001908152602001600020805490506006600083815260200190815260200160002081905550600560008373ffffffffffffffffffffffffffffffffffffffff1673ffffffffffffffffffffffffffffffffffffffff1681526020019081526020016000208190806001815401808255809150509060018203906000526020600020016000909192909190915055505050565b6007805490506008600083815260200190815260200160002081905550600781908060018154018082558091505090600182039060005260206000200160009091929091909150555050565b8273ffffffffffffffffffffffffffffffffffffffff166150ac82612c68565b73ffffffffffffffffffffffffffffffffffffffff1614615118576040517f08c379a0000000000000000000000000000000000000000000000000000000008152600401808060200182810382526029815260200180615b726029913960400191505060405180910390fd5b600073ffffffffffffffffffffffffffffffffffffffff168273ffffffffffffffffffffffffffffffffffffffff16141561519e576040517f08c379a0000000000000000000000000000000000000000000000000000000008152600401808060200182810382526024815260200180615a4a6024913960400191505060405180910390fd5b6151a7816156f7565b6151ee600360008573ffffffffffffffffffffffffffffffffffffffff1673ffffffffffffffffffffffffffffffffffffffff1681526020019081526020016000206157b5565b615235600360008473ffffffffffffffffffffffffffffffffffffffff1673ffffffffffffffffffffffffffffffffffffffff1681526020019081526020016000206156e1565b816001600083815260200190815260200160002060006101000a81548173ffffffffffffffffffffffffffffffffffffffff021916908373ffffffffffffffffffffffffffffffffffffffff160217905550808273ffffffffffffffffffffffffffffffffffffffff168473ffffffffffffffffffffffffffffffffffffffff167fddf252ad1be2c89b69c2b068fc378daa952ba7f163c4a11628f55a4df523b3ef60405160405180910390a4505050565b600061533f6001600560008673ffffffffffffffffffffffffffffffffffffffff1673ffffffffffffffffffffffffffffffffffffffff1681526020019081526020016000208054905061482890919063ffffffff16565b905060006006600084815260200190815260200160002054905081811461542c576000600560008673ffffffffffffffffffffffffffffffffffffffff1673ffffffffffffffffffffffffffffffffffffffff16815260200190815260200160002083815481106153ac57fe5b9060005260206000200154905080600560008773ffffffffffffffffffffffffffffffffffffffff1673ffffffffffffffffffffffffffffffffffffffff168152602001908152602001600020838154811061540457fe5b9060005260206000200181905550816006600083815260200190815260200160002081905550505b600560008573ffffffffffffffffffffffffffffffffffffffff1673ffffffffffffffffffffffffffffffffffffffff16815260200190815260200160002080548091906001900361547e919061599b565b5050505050565b8173ffffffffffffffffffffffffffffffffffffffff166154a582612c68565b73ffffffffffffffffffffffffffffffffffffffff1614615511576040517f08c379a0000000000000000000000000000000000000000000000000000000008152600401808060200182810382526025815260200180615c3b6025913960400191505060405180910390fd5b61551a816156f7565b615561600360008473ffffffffffffffffffffffffffffffffffffffff1673ffffffffffffffffffffffffffffffffffffffff1681526020019081526020016000206157b5565b60006001600083815260200190815260200160002060006101000a81548173ffffffffffffffffffffffffffffffffffffffff021916908373ffffffffffffffffffffffffffffffffffffffff16021790555080600073ffffffffffffffffffffffffffffffffffffffff168373ffffffffffffffffffffffffffffffffffffffff167fddf252ad1be2c89b69c2b068fc378daa952ba7f163c4a11628f55a4df523b3ef60405160405180910390a45050565b600061562f600160078054905061482890919063ffffffff16565b905060006008600084815260200190815260200160002054905060006007838154811061565857fe5b90600052602060002001549050806007838154811061567357fe5b906000526020600020018190555081600860008381526020019081526020016000208190555060078054809190600190036156ae919061599b565b506000600860008681526020019081526020016000208190555050505050565b600080823b905060008111915050919050565b6001816000016000828254019250508190555050565b600073ffffffffffffffffffffffffffffffffffffffff166002600083815260200190815260200160002060009054906101000a900473ffffffffffffffffffffffffffffffffffffffff1673ffffffffffffffffffffffffffffffffffffffff16146157b25760006002600083815260200190815260200160002060006101000a81548173ffffffffffffffffffffffffffffffffffffffff021916908373ffffffffffffffffffffffffffffffffffffffff1602179055505b50565b6157cd6001826000015461482890919063ffffffff16565b816000018190555050565b604051806101400160405280600081526020016060815260200160008152602001600073ffffffffffffffffffffffffffffffffffffffff16815260200160608152602001600073ffffffffffffffffffffffffffffffffffffffff16815260200160008152602001600081526020016000151581526020016000151581525090565b828054600181600116156101000203166002900490600052602060002090601f016020900481019282601f1061589c57805160ff19168380011785556158ca565b828001600101855582156158ca579182015b828111156158c95782518255916020019190600101906158ae565b5b5090506158d791906159c7565b5090565b604051806080016040528060608152602001600073ffffffffffffffffffffffffffffffffffffffff168152602001606081526020016000151581525090565b828054600181600116156101000203166002900490600052602060002090601f016020900481019282601f1061595c57805160ff191683800117855561598a565b8280016001018555821561598a579182015b8281111561598957825182559160200191906001019061596e565b5b50905061599791906159c7565b5090565b8154818355818111156159c2578183600052602060002091820191016159c191906159c7565b5b505050565b6159e991905b808211156159e55760008160009055506001016159cd565b5090565b9056fe455243373231456e756d657261626c653a206f776e657220696e646578206f7574206f6620626f756e64734552433732313a207472616e7366657220746f206e6f6e20455243373231526563656976657220696d706c656d656e7465724552433732313a207472616e7366657220746f20746865207a65726f20616464726573734552433732313a206f70657261746f7220717565727920666f72206e6f6e6578697374656e7420746f6b656e4552433732313a20617070726f76652063616c6c6572206973206e6f74206f776e6572206e6f7220617070726f76656420666f7220616c6c4552433732313a2062616c616e636520717565727920666f7220746865207a65726f20616464726573734552433732313a206f776e657220717565727920666f72206e6f6e6578697374656e7420746f6b656e536166654d6174683a206d756c7469706c69636174696f6e206f766572666c6f774552433732313a20617070726f76656420717565727920666f72206e6f6e6578697374656e7420746f6b656e4552433732313a207472616e73666572206f6620746f6b656e2074686174206973206e6f74206f776e4552433732313a20617070726f76616c20746f2063757272656e74206f776e65724552433732313a207472616e736665722063616c6c6572206973206e6f74206f776e6572206e6f7220617070726f766564455243373231456e756d657261626c653a20676c6f62616c20696e646578206f7574206f6620626f756e6473596f7520646f6e2774206861766520656e6f75676820456d7074792043657274732e4552433732313a206275726e206f6620746f6b656e2074686174206973206e6f74206f776ea165627a7a72305820af3baab08d42f66d48fd8b8ae33559005e5ab31739b2995d38dd24028aaea3920029",
  "source": "pragma solidity ^0.5.6;\r\n\r\nimport \"./ERC721/ERC721Enumerable.sol\";\r\n\r\ncontract CertToken is ERC721Enumerable{\r\n    \r\n    using SafeMath for uint8;\r\n    using SafeMath for uint256;\r\n\r\n    struct Cert {\r\n        uint256 tokenId;    // ''  \r\n\r\n        string  name;       //  \r\n        uint256 num;        //  no.\r\n        address issuer;     //  \r\n        string  imgurl;     // IPFS   \r\n        address holder;     //  \r\n        uint    date;       //  \r\n        uint    mintDate;   //    \r\n\r\n        bool    exchangable;   //  \r\n        bool    authorized;    //   \r\n    }\r\n    \r\n    //     \r\n    struct  AuthorizedIssuer {\r\n        string  name;           //  \r\n        address issuerAddress;  //  \r\n        string  url;            //  url\r\n        bool    authorized;     //  \r\n    }\r\n\r\n    mapping (address => mapping(string => uint256[])) private _issuer2Certs;\r\n    mapping (uint256 => Cert) private _id2Certs;\r\n\r\n    mapping (address => uint256) private _address2EmptyCert; // TODO:   \r\n    mapping (address => AuthorizedIssuer) private _authorizedList;\r\n    mapping (uint256 => string[]) private _cert2sig;\r\n\r\n    address payable public owner;\r\n\r\n    // 1000000000000000000 Peb = klay\r\n    uint256 private issueFee;\r\n\r\n    event NewCert(uint256 indexed tokenId, string indexed name, uint no, string url, address holder, address issuer, bool exchangable, bool authorized, uint date, uint now);    \r\n    event BurnCert(uint256 tokenId);\r\n    event MintEmptyCert(address issuer, uint256 num);\r\n    event OrgAuthorize(address indexed issuer, string name, string url);\r\n    event OrgDeauthorize(address indexed issuer);\r\n    event AddSig(uint256 tokenId, string sig);\r\n\r\n    constructor() public {\r\n        owner = msg.sender; // cert contract's owner\r\n        issueFee = 100000000000000000; // 0.1klay\r\n    }\r\n    \r\n    \r\n    function changeFee(uint256 _fee) onlyOwner public{\r\n        issueFee = _fee;\r\n    }\r\n\r\n    function mintCert(string memory _name, address _holder, string memory _url, bool _exchangable, uint256 _date)\r\n    public payable\r\n    returns(uint256){\r\n        \r\n\r\n        //     \r\n        address issuer = msg.sender;\r\n\r\n        require (_address2EmptyCert[issuer] >= 1, \"You don't have enough Empty Certs.\");\r\n        uint256 totalAmount = _address2EmptyCert[issuer].sub(1);\r\n        _address2EmptyCert[issuer] = totalAmount;\r\n\r\n        uint256 certNo = _issuer2Certs[issuer][_name].length; //     No\r\n        bool authorized = isAuthorized(issuer);\r\n        \r\n        uint256 tokenId = uint256(keccak256(abi.encodePacked(_name, _url, _holder, issuer, _exchangable, _date, block.timestamp)));\r\n\r\n        // TODO: ERC721   . holder \r\n        Cert memory newCert = Cert({\r\n            tokenId     : tokenId,\r\n            name        : _name,    // cert name\r\n            num         : certNo,   // cert no.\r\n            imgurl      : _url,     // IPFS\r\n            holder      : _holder,\r\n            date        : _date,\r\n            mintDate    : block.timestamp,\r\n            issuer      : issuer,\r\n            exchangable : _exchangable,\r\n            authorized  : authorized\r\n        });\r\n        \r\n        _issuer2Certs[issuer][_name].push(tokenId);\r\n        _id2Certs[tokenId] = newCert;\r\n        _mint(_holder, tokenId); //   \r\n        \r\n        // event NewCert(uint256 indexed tokenId, string indexed name, uint no, string url, address holder, address issuer, bool exchangable, bool authorized, uint date, uint now);    \r\n\r\n        emit NewCert(tokenId, _name, certNo, _url, _holder, issuer, _exchangable, authorized, newCert.date, now);\r\n        return tokenId;\r\n    }\r\n    \r\n    // TODO :  holder, owner(byobl), issuer?\r\n    function burnCert(uint256 _tokenId) public{\r\n\r\n        Cert memory targetCert = _id2Certs[_tokenId];\r\n        require((msg.sender == owner || msg.sender == targetCert.issuer || msg.sender == targetCert.holder), \"BURN ERROR, Permission Error\");\r\n\r\n        _burn(targetCert.holder, _tokenId);\r\n\r\n        targetCert.holder = address(0);\r\n        _id2Certs[_tokenId] = targetCert;\r\n        emit BurnCert(_tokenId);\r\n\r\n    }\r\n    \r\n    function transferOwnership(uint256 _tokenId, address _to) public{\r\n        // Check if Cert can be exchange\r\n        Cert memory targetCert = _id2Certs[_tokenId];\r\n        require((msg.sender == owner || msg.sender == targetCert.issuer || msg.sender == targetCert.holder), \"BURN ERROR, Permission Error\");\r\n        require(_id2Certs[_tokenId].exchangable, \"This token can't be exchanged\");\r\n\r\n        _transferFrom(msg.sender, _to, _tokenId);\r\n        targetCert.holder = _to;\r\n        _id2Certs[_tokenId] = targetCert;\r\n    }\r\n\r\n    function getTotalCertCount () public view returns (uint) {\r\n        return totalSupply();\r\n    }\r\n\r\n    function getCert(uint _tokenId) public view\r\n    returns(uint256, string memory, uint256, address, string memory, address, uint, uint, bool, bool){\r\n        Cert memory targetCert = _id2Certs[_tokenId];\r\n\r\n        return (\r\n            targetCert.tokenId,    \r\n            targetCert.name,       \r\n            targetCert.num,        \r\n            targetCert.issuer,     \r\n            targetCert.imgurl,     \r\n            targetCert.holder,     \r\n            targetCert.date,       \r\n            targetCert.mintDate,   \r\n            targetCert.exchangable,\r\n            targetCert.authorized\r\n        );\r\n    }\r\n\r\n\r\n    function isAuthorized(address _issuer) public view\r\n    returns(bool){\r\n        return _authorizedList[_issuer].authorized;\r\n    }\r\n\r\n    function getIsserInfo(address _issuer) public view\r\n    returns(string memory, address, string memory){\r\n        AuthorizedIssuer memory isserInfo = _authorizedList[_issuer];\r\n\r\n        return (\r\n            isserInfo.name,\r\n            isserInfo.issuerAddress,\r\n            isserInfo.url\r\n        );\r\n    }\r\n\r\n    //      \r\n    function mintEmptyCert(address _issuer, uint256 _num) onlyOwner public{\r\n        //         \r\n        uint256 totalAmount = _address2EmptyCert[_issuer].add(_num); // using SafeMath\r\n        _address2EmptyCert[_issuer] = totalAmount;\r\n\r\n        emit MintEmptyCert(_issuer, _num);\r\n    }\r\n\r\n    // KLAY  \r\n    function buyEmptyCert(address _issuer, uint256 _num) public payable\r\n    returns(uint256){\r\n        \r\n        require(_num > 0, \"Needs positive value\");\r\n\r\n        uint256 fee = _num.mul(issueFee);\r\n        require(msg.value > fee, \"Not enough money\");\r\n        \r\n        owner.transfer(fee); // transfer money to owner\r\n        \r\n        uint256 totalAmount = _address2EmptyCert[_issuer].add(_num); // using SafeMath\r\n        _address2EmptyCert[_issuer] = totalAmount;\r\n\r\n        return totalAmount;\r\n    }\r\n\r\n    function returnEmptyCert(address _issuer) public view\r\n    returns (uint256){\r\n        return _address2EmptyCert[_issuer];\r\n    }\r\n\r\n    function authorize(string memory _name, address _issuer, string memory _url) onlyOwner public{\r\n        \r\n        AuthorizedIssuer memory newAuth = AuthorizedIssuer({\r\n            name            : _name,\r\n            url             : _url,\r\n            issuerAddress   : _issuer,     //   \r\n            authorized      : true\r\n        });\r\n\r\n        _authorizedList[_issuer] = newAuth;\r\n        emit OrgAuthorize(newAuth.issuerAddress, newAuth.name, newAuth.url);\r\n    }\r\n\r\n    function deauthorize(address _issuer) onlyOwner public{\r\n    \r\n        AuthorizedIssuer memory newAuth = AuthorizedIssuer({\r\n            name            : \"\",\r\n            url             : \"\",\r\n            issuerAddress   : address(0),     //   \r\n            authorized      : false\r\n        });\r\n\r\n        _authorizedList[_issuer] = newAuth;\r\n        emit OrgDeauthorize(_issuer);\r\n\r\n    }\r\n\r\n    function addSig(uint256 _tokenId, string memory _sig) public{\r\n\r\n        Cert memory targetCert = _id2Certs[_tokenId];\r\n        require(targetCert.holder != address(0), \"No such Cert\");\r\n        require((msg.sender == owner || msg.sender == targetCert.holder), \"Add sig error, Permission Error\");\r\n\r\n       _cert2sig[_tokenId].push(_sig); \r\n\r\n        emit AddSig(_tokenId, _sig);\r\n    }\r\n\r\n    function getIndexedSig(uint256 _tokenId, uint256 _index) public view\r\n    returns(string memory){\r\n        string memory targetSig = _cert2sig[_tokenId][_index]; \r\n        return targetSig;\r\n    }\r\n\r\n    function getLatestSig(uint256 _tokenId) public view\r\n    returns(string memory){\r\n        uint256 index = _cert2sig[_tokenId].length - 1;\r\n        return _cert2sig[_tokenId][index];\r\n    }\r\n    \r\n    // fallback\r\n    function() external payable {}\r\n\r\n    function changeOwner() onlyOwner public{\r\n        owner = msg.sender;\r\n        return;\r\n    }\r\n\r\n    modifier onlyOwner {\r\n        require (msg.sender == owner, \"Only Owner\");\r\n        _;\r\n    }\r\n    \r\n}\r\n",
  "sourcePath": "/mnt/c/Users/happy/Documents/workspace/sillock/sillock-contracts/contracts/CertToken.sol",
  "compiler": {
    "name": "solc",
    "version": "0.5.6+commit.b259423e.Emscripten.clang"
  },
  "schemaVersion": "3.0.3",
  "updatedAt": "2021-03-05T16:13:39.836Z",
  "devdoc": {
    "methods": {
      "approve(address,uint256)": {
        "details": "Approves another address to transfer the given token ID The zero address indicates there is no approved address. There can only be one approved address per token at a given time. Can only be called by the token owner or an approved operator.",
        "params": {
          "to": "address to be approved for the given token ID",
          "tokenId": "uint256 ID of the token to be approved"
        }
      },
      "balanceOf(address)": {
        "details": "Gets the balance of the specified address.",
        "params": {
          "owner": "address to query the balance of"
        },
        "return": "uint256 representing the amount owned by the passed address"
      },
      "getApproved(uint256)": {
        "details": "Gets the approved address for a token ID, or zero if no address set Reverts if the token ID does not exist.",
        "params": {
          "tokenId": "uint256 ID of the token to query the approval of"
        },
        "return": "address currently approved for the given token ID"
      },
      "isApprovedForAll(address,address)": {
        "details": "Tells whether an operator is approved by a given owner.",
        "params": {
          "operator": "operator address which you want to query the approval of",
          "owner": "owner address which you want to query the approval of"
        },
        "return": "bool whether the given operator is approved by the given owner"
      },
      "ownerOf(uint256)": {
        "details": "Gets the owner of the specified token ID.",
        "params": {
          "tokenId": "uint256 ID of the token to query the owner of"
        },
        "return": "address currently marked as the owner of the given token ID"
      },
      "safeTransferFrom(address,address,uint256)": {
        "details": "Safely transfers the ownership of a given token ID to another address If the target address is a contract, it must implement `onERC721Received`, which is called upon a safe transfer, and return the magic value `bytes4(keccak256(\"onERC721Received(address,address,uint256,bytes)\"))`; otherwise, the transfer is reverted. Requires the msg.sender to be the owner, approved, or operator",
        "params": {
          "from": "current owner of the token",
          "to": "address to receive the ownership of the given token ID",
          "tokenId": "uint256 ID of the token to be transferred"
        }
      },
      "safeTransferFrom(address,address,uint256,bytes)": {
        "details": "Safely transfers the ownership of a given token ID to another address If the target address is a contract, it must implement `onERC721Received`, which is called upon a safe transfer, and return the magic value `bytes4(keccak256(\"onERC721Received(address,address,uint256,bytes)\"))`; otherwise, the transfer is reverted. Requires the msg.sender to be the owner, approved, or operator",
        "params": {
          "_data": "bytes data to send along with a safe transfer check",
          "from": "current owner of the token",
          "to": "address to receive the ownership of the given token ID",
          "tokenId": "uint256 ID of the token to be transferred"
        }
      },
      "setApprovalForAll(address,bool)": {
        "details": "Sets or unsets the approval of a given operator An operator is allowed to transfer all tokens of the sender on their behalf.",
        "params": {
          "approved": "representing the status of the approval to be set",
          "to": "operator address to set the approval"
        }
      },
      "supportsInterface(bytes4)": {
        "details": "See `IERC165.supportsInterface`.     * Time complexity O(1), guaranteed to always use less than 30 000 gas."
      },
      "tokenByIndex(uint256)": {
        "details": "Gets the token ID at a given index of all the tokens in this contract Reverts if the index is greater or equal to the total number of tokens.",
        "params": {
          "index": "uint256 representing the index to be accessed of the tokens list"
        },
        "return": "uint256 token ID at the given index of the tokens list"
      },
      "tokenOfOwnerByIndex(address,uint256)": {
        "details": "Gets the token ID at a given index of the tokens list of the requested owner.",
        "params": {
          "index": "uint256 representing the index to be accessed of the requested tokens list",
          "owner": "address owning the tokens list to be accessed"
        },
        "return": "uint256 token ID at the given index of the tokens list owned by the requested address"
      },
      "totalSupply()": {
        "details": "Gets the total amount of tokens stored by the contract.",
        "return": "uint256 representing the total amount of tokens"
      },
      "transferFrom(address,address,uint256)": {
        "details": "Transfers the ownership of a given token ID to another address. Usage of this method is discouraged, use `safeTransferFrom` whenever possible. Requires the msg.sender to be the owner, approved, or operator.",
        "params": {
          "from": "current owner of the token",
          "to": "address to receive the ownership of the given token ID",
          "tokenId": "uint256 ID of the token to be transferred"
        }
      }
    }
  },
  "userdoc": {
    "methods": {}
  }
}