{
  "contractName": "CertToken",
  "abi": [
    {
      "constant": true,
      "inputs": [
        {
          "name": "interfaceId",
          "type": "bytes4"
        }
      ],
      "name": "supportsInterface",
      "outputs": [
        {
          "name": "",
          "type": "bool"
        }
      ],
      "payable": false,
      "stateMutability": "view",
      "type": "function"
    },
    {
      "constant": true,
      "inputs": [
        {
          "name": "tokenId",
          "type": "uint256"
        }
      ],
      "name": "getApproved",
      "outputs": [
        {
          "name": "",
          "type": "address"
        }
      ],
      "payable": false,
      "stateMutability": "view",
      "type": "function"
    },
    {
      "constant": false,
      "inputs": [
        {
          "name": "to",
          "type": "address"
        },
        {
          "name": "tokenId",
          "type": "uint256"
        }
      ],
      "name": "approve",
      "outputs": [],
      "payable": false,
      "stateMutability": "nonpayable",
      "type": "function"
    },
    {
      "constant": true,
      "inputs": [],
      "name": "totalSupply",
      "outputs": [
        {
          "name": "",
          "type": "uint256"
        }
      ],
      "payable": false,
      "stateMutability": "view",
      "type": "function"
    },
    {
      "constant": false,
      "inputs": [
        {
          "name": "from",
          "type": "address"
        },
        {
          "name": "to",
          "type": "address"
        },
        {
          "name": "tokenId",
          "type": "uint256"
        }
      ],
      "name": "transferFrom",
      "outputs": [],
      "payable": false,
      "stateMutability": "nonpayable",
      "type": "function"
    },
    {
      "constant": true,
      "inputs": [
        {
          "name": "owner",
          "type": "address"
        },
        {
          "name": "index",
          "type": "uint256"
        }
      ],
      "name": "tokenOfOwnerByIndex",
      "outputs": [
        {
          "name": "",
          "type": "uint256"
        }
      ],
      "payable": false,
      "stateMutability": "view",
      "type": "function"
    },
    {
      "constant": false,
      "inputs": [
        {
          "name": "from",
          "type": "address"
        },
        {
          "name": "to",
          "type": "address"
        },
        {
          "name": "tokenId",
          "type": "uint256"
        }
      ],
      "name": "safeTransferFrom",
      "outputs": [],
      "payable": false,
      "stateMutability": "nonpayable",
      "type": "function"
    },
    {
      "constant": true,
      "inputs": [
        {
          "name": "index",
          "type": "uint256"
        }
      ],
      "name": "tokenByIndex",
      "outputs": [
        {
          "name": "",
          "type": "uint256"
        }
      ],
      "payable": false,
      "stateMutability": "view",
      "type": "function"
    },
    {
      "constant": true,
      "inputs": [
        {
          "name": "tokenId",
          "type": "uint256"
        }
      ],
      "name": "ownerOf",
      "outputs": [
        {
          "name": "",
          "type": "address"
        }
      ],
      "payable": false,
      "stateMutability": "view",
      "type": "function"
    },
    {
      "constant": true,
      "inputs": [
        {
          "name": "owner",
          "type": "address"
        }
      ],
      "name": "balanceOf",
      "outputs": [
        {
          "name": "",
          "type": "uint256"
        }
      ],
      "payable": false,
      "stateMutability": "view",
      "type": "function"
    },
    {
      "constant": true,
      "inputs": [],
      "name": "owner",
      "outputs": [
        {
          "name": "",
          "type": "address"
        }
      ],
      "payable": false,
      "stateMutability": "view",
      "type": "function"
    },
    {
      "constant": false,
      "inputs": [
        {
          "name": "to",
          "type": "address"
        },
        {
          "name": "approved",
          "type": "bool"
        }
      ],
      "name": "setApprovalForAll",
      "outputs": [],
      "payable": false,
      "stateMutability": "nonpayable",
      "type": "function"
    },
    {
      "constant": false,
      "inputs": [
        {
          "name": "from",
          "type": "address"
        },
        {
          "name": "to",
          "type": "address"
        },
        {
          "name": "tokenId",
          "type": "uint256"
        },
        {
          "name": "_data",
          "type": "bytes"
        }
      ],
      "name": "safeTransferFrom",
      "outputs": [],
      "payable": false,
      "stateMutability": "nonpayable",
      "type": "function"
    },
    {
      "constant": true,
      "inputs": [
        {
          "name": "owner",
          "type": "address"
        },
        {
          "name": "operator",
          "type": "address"
        }
      ],
      "name": "isApprovedForAll",
      "outputs": [
        {
          "name": "",
          "type": "bool"
        }
      ],
      "payable": false,
      "stateMutability": "view",
      "type": "function"
    },
    {
      "inputs": [],
      "payable": false,
      "stateMutability": "nonpayable",
      "type": "constructor"
    },
    {
      "payable": true,
      "stateMutability": "payable",
      "type": "fallback"
    },
    {
      "anonymous": false,
      "inputs": [
        {
          "indexed": true,
          "name": "tokenId",
          "type": "uint256"
        },
        {
          "indexed": true,
          "name": "name",
          "type": "string"
        },
        {
          "indexed": false,
          "name": "no",
          "type": "uint256"
        },
        {
          "indexed": false,
          "name": "url",
          "type": "string"
        },
        {
          "indexed": false,
          "name": "holder",
          "type": "address"
        },
        {
          "indexed": false,
          "name": "issuer",
          "type": "address"
        },
        {
          "indexed": false,
          "name": "exchangable",
          "type": "bool"
        },
        {
          "indexed": false,
          "name": "authorized",
          "type": "bool"
        },
        {
          "indexed": false,
          "name": "date",
          "type": "uint256"
        },
        {
          "indexed": false,
          "name": "now",
          "type": "uint256"
        }
      ],
      "name": "NewCert",
      "type": "event"
    },
    {
      "anonymous": false,
      "inputs": [
        {
          "indexed": false,
          "name": "tokenId",
          "type": "uint256"
        }
      ],
      "name": "BurnCert",
      "type": "event"
    },
    {
      "anonymous": false,
      "inputs": [
        {
          "indexed": true,
          "name": "from",
          "type": "address"
        },
        {
          "indexed": true,
          "name": "to",
          "type": "address"
        },
        {
          "indexed": true,
          "name": "tokenId",
          "type": "uint256"
        }
      ],
      "name": "Transfer",
      "type": "event"
    },
    {
      "anonymous": false,
      "inputs": [
        {
          "indexed": true,
          "name": "owner",
          "type": "address"
        },
        {
          "indexed": true,
          "name": "approved",
          "type": "address"
        },
        {
          "indexed": true,
          "name": "tokenId",
          "type": "uint256"
        }
      ],
      "name": "Approval",
      "type": "event"
    },
    {
      "anonymous": false,
      "inputs": [
        {
          "indexed": true,
          "name": "owner",
          "type": "address"
        },
        {
          "indexed": true,
          "name": "operator",
          "type": "address"
        },
        {
          "indexed": false,
          "name": "approved",
          "type": "bool"
        }
      ],
      "name": "ApprovalForAll",
      "type": "event"
    },
    {
      "constant": false,
      "inputs": [
        {
          "name": "_fee",
          "type": "uint256"
        }
      ],
      "name": "changeFee",
      "outputs": [],
      "payable": false,
      "stateMutability": "nonpayable",
      "type": "function"
    },
    {
      "constant": false,
      "inputs": [
        {
          "name": "_name",
          "type": "string"
        },
        {
          "name": "_holder",
          "type": "address"
        },
        {
          "name": "_url",
          "type": "string"
        },
        {
          "name": "_exchangable",
          "type": "bool"
        },
        {
          "name": "_date",
          "type": "uint256"
        }
      ],
      "name": "mintCert",
      "outputs": [
        {
          "name": "",
          "type": "uint256"
        }
      ],
      "payable": true,
      "stateMutability": "payable",
      "type": "function"
    },
    {
      "constant": false,
      "inputs": [
        {
          "name": "_tokenId",
          "type": "uint256"
        }
      ],
      "name": "burnCert",
      "outputs": [],
      "payable": false,
      "stateMutability": "nonpayable",
      "type": "function"
    },
    {
      "constant": false,
      "inputs": [
        {
          "name": "_tokenId",
          "type": "uint256"
        },
        {
          "name": "_to",
          "type": "address"
        }
      ],
      "name": "transferOwnership",
      "outputs": [],
      "payable": false,
      "stateMutability": "nonpayable",
      "type": "function"
    },
    {
      "constant": true,
      "inputs": [],
      "name": "getTotalCertCount",
      "outputs": [
        {
          "name": "",
          "type": "uint256"
        }
      ],
      "payable": false,
      "stateMutability": "view",
      "type": "function"
    },
    {
      "constant": true,
      "inputs": [
        {
          "name": "_tokenId",
          "type": "uint256"
        }
      ],
      "name": "getCert",
      "outputs": [
        {
          "name": "",
          "type": "uint256"
        },
        {
          "name": "",
          "type": "string"
        },
        {
          "name": "",
          "type": "uint256"
        },
        {
          "name": "",
          "type": "address"
        },
        {
          "name": "",
          "type": "string"
        },
        {
          "name": "",
          "type": "address"
        },
        {
          "name": "",
          "type": "uint256"
        },
        {
          "name": "",
          "type": "uint256"
        },
        {
          "name": "",
          "type": "bool"
        },
        {
          "name": "",
          "type": "bool"
        }
      ],
      "payable": false,
      "stateMutability": "view",
      "type": "function"
    },
    {
      "constant": true,
      "inputs": [
        {
          "name": "_issuer",
          "type": "address"
        }
      ],
      "name": "isAuthorized",
      "outputs": [
        {
          "name": "",
          "type": "bool"
        }
      ],
      "payable": false,
      "stateMutability": "view",
      "type": "function"
    },
    {
      "constant": true,
      "inputs": [
        {
          "name": "_issuer",
          "type": "address"
        }
      ],
      "name": "getIsserInfo",
      "outputs": [
        {
          "name": "",
          "type": "string"
        },
        {
          "name": "",
          "type": "address"
        },
        {
          "name": "",
          "type": "string"
        }
      ],
      "payable": false,
      "stateMutability": "view",
      "type": "function"
    },
    {
      "constant": false,
      "inputs": [
        {
          "name": "_issuer",
          "type": "address"
        },
        {
          "name": "_num",
          "type": "uint256"
        }
      ],
      "name": "mintEmptyCert",
      "outputs": [],
      "payable": false,
      "stateMutability": "nonpayable",
      "type": "function"
    },
    {
      "constant": false,
      "inputs": [
        {
          "name": "_issuer",
          "type": "address"
        },
        {
          "name": "_num",
          "type": "uint256"
        }
      ],
      "name": "buyEmptyCert",
      "outputs": [
        {
          "name": "",
          "type": "uint256"
        }
      ],
      "payable": true,
      "stateMutability": "payable",
      "type": "function"
    },
    {
      "constant": true,
      "inputs": [
        {
          "name": "_issuer",
          "type": "address"
        }
      ],
      "name": "returnEmptyCert",
      "outputs": [
        {
          "name": "",
          "type": "uint256"
        }
      ],
      "payable": false,
      "stateMutability": "view",
      "type": "function"
    },
    {
      "constant": false,
      "inputs": [
        {
          "name": "_name",
          "type": "string"
        },
        {
          "name": "_issuer",
          "type": "address"
        },
        {
          "name": "_url",
          "type": "string"
        }
      ],
      "name": "authorize",
      "outputs": [],
      "payable": false,
      "stateMutability": "nonpayable",
      "type": "function"
    },
    {
      "constant": false,
      "inputs": [
        {
          "name": "_issuer",
          "type": "address"
        }
      ],
      "name": "deauthorize",
      "outputs": [],
      "payable": false,
      "stateMutability": "nonpayable",
      "type": "function"
    },
    {
      "constant": false,
      "inputs": [
        {
          "name": "_tokenId",
          "type": "uint256"
        },
        {
          "name": "_sig",
          "type": "string"
        }
      ],
      "name": "addSig",
      "outputs": [],
      "payable": false,
      "stateMutability": "nonpayable",
      "type": "function"
    },
    {
      "constant": true,
      "inputs": [
        {
          "name": "_tokenId",
          "type": "uint256"
        },
        {
          "name": "_index",
          "type": "uint256"
        }
      ],
      "name": "getIndexedSig",
      "outputs": [
        {
          "name": "",
          "type": "string"
        }
      ],
      "payable": false,
      "stateMutability": "view",
      "type": "function"
    }
  ],
  "bytecode": "0x60806040523480156200001157600080fd5b506200004f6301ffc9a77c0100000000000000000000000000000000000000000000000000000000026200011f640100000000026401000000009004565b6200008c6380ac58cd7c0100000000000000000000000000000000000000000000000000000000026200011f640100000000026401000000009004565b620000c963780e9d637c0100000000000000000000000000000000000000000000000000000000026200011f640100000000026401000000009004565b33600e60006101000a81548173ffffffffffffffffffffffffffffffffffffffff021916908373ffffffffffffffffffffffffffffffffffffffff16021790555067016345785d8a0000600f8190555062000244565b63ffffffff7c010000000000000000000000000000000000000000000000000000000002817bffffffffffffffffffffffffffffffffffffffffffffffffffffffff19161415620001d8576040517f08c379a000000000000000000000000000000000000000000000000000000000815260040180806020018281038252601c8152602001807f4552433136353a20696e76616c696420696e746572666163652069640000000081525060200191505060405180910390fd5b6001600080837bffffffffffffffffffffffffffffffffffffffffffffffffffffffff19167bffffffffffffffffffffffffffffffffffffffffffffffffffffffff1916815260200190815260200160002060006101000a81548160ff02191690831515021790555050565b61573d80620002546000396000f3fe6080604052600436106101df576000357c0100000000000000000000000000000000000000000000000000000000900480635e310204116101145780638da5cb5b116100b2578063b88d4fde11610081578063b88d4fde14610f6e578063e985e9c514611080578063f013bffb14611109578063fe9fbb8014611272576101df565b80638da5cb5b14610ca057806396dc0fa014610cf7578063a22cb46514610d59578063b449e71614610db6576101df565b806370a08231116100ee57806370a08231146109af57806389121ae914610a1457806389b07f0d14610b935780638ca5726514610c65576101df565b80635e3102041461089e5780636352211e146108f95780636a1db1bf14610974576101df565b806327c97fa51161018157806342842e0e1161015b57806342842e0e146106eb5780634679cdaa146107665780634f6ccce71461079157806354469eeb146107e0576101df565b806327c97fa5146105d057806329507f73146106215780632f745c591461067c576101df565b806318160ddd116101bd57806318160ddd146103295780631fd28db014610354578063220edeb0146104f057806323b872dd14610555576101df565b806301ffc9a7146101e1578063081812fc14610253578063095ea7b3146102ce575b005b3480156101ed57600080fd5b506102396004803603602081101561020457600080fd5b8101908080357bffffffffffffffffffffffffffffffffffffffffffffffffffffffff191690602001909291905050506112db565b604051808215151515815260200191505060405180910390f35b34801561025f57600080fd5b5061028c6004803603602081101561027657600080fd5b8101908080359060200190929190505050611342565b604051808273ffffffffffffffffffffffffffffffffffffffff1673ffffffffffffffffffffffffffffffffffffffff16815260200191505060405180910390f35b3480156102da57600080fd5b50610327600480360360408110156102f157600080fd5b81019080803573ffffffffffffffffffffffffffffffffffffffff169060200190929190803590602001909291905050506113dd565b005b34801561033557600080fd5b5061033e6115b6565b6040518082815260200191505060405180910390f35b6104da600480360360a081101561036a57600080fd5b810190808035906020019064010000000081111561038757600080fd5b82018360208201111561039957600080fd5b803590602001918460018302840111640100000000831117156103bb57600080fd5b91908080601f016020809104026020016040519081016040528093929190818152602001838380828437600081840152601f19601f820116905080830192505050505050509192919290803573ffffffffffffffffffffffffffffffffffffffff1690602001909291908035906020019064010000000081111561043e57600080fd5b82018360208201111561045057600080fd5b8035906020019184600183028401116401000000008311171561047257600080fd5b91908080601f016020809104026020016040519081016040528093929190818152602001838380828437600081840152601f19601f820116905080830192505050505050509192919290803515159060200190929190803590602001909291905050506115c3565b6040518082815260200191505060405180910390f35b3480156104fc57600080fd5b5061053f6004803603602081101561051357600080fd5b81019080803573ffffffffffffffffffffffffffffffffffffffff169060200190929190505050611d98565b6040518082815260200191505060405180910390f35b34801561056157600080fd5b506105ce6004803603606081101561057857600080fd5b81019080803573ffffffffffffffffffffffffffffffffffffffff169060200190929190803573ffffffffffffffffffffffffffffffffffffffff16906020019092919080359060200190929190505050611de1565b005b3480156105dc57600080fd5b5061061f600480360360208110156105f357600080fd5b81019080803573ffffffffffffffffffffffffffffffffffffffff169060200190929190505050611e50565b005b34801561062d57600080fd5b5061067a6004803603604081101561064457600080fd5b8101908080359060200190929190803573ffffffffffffffffffffffffffffffffffffffff16906020019092919050505061205e565b005b34801561068857600080fd5b506106d56004803603604081101561069f57600080fd5b81019080803573ffffffffffffffffffffffffffffffffffffffff16906020019092919080359060200190929190505050612633565b6040518082815260200191505060405180910390f35b3480156106f757600080fd5b506107646004803603606081101561070e57600080fd5b81019080803573ffffffffffffffffffffffffffffffffffffffff169060200190929190803573ffffffffffffffffffffffffffffffffffffffff169060200190929190803590602001909291905050506126f2565b005b34801561077257600080fd5b5061077b612712565b6040518082815260200191505060405180910390f35b34801561079d57600080fd5b506107ca600480360360208110156107b457600080fd5b8101908080359060200190929190505050612721565b6040518082815260200191505060405180910390f35b3480156107ec57600080fd5b506108236004803603604081101561080357600080fd5b8101908080359060200190929190803590602001909291905050506127a1565b6040518080602001828103825283818151815260200191508051906020019080838360005b83811015610863578082015181840152602081019050610848565b50505050905090810190601f1680156108905780820380516001836020036101000a031916815260200191505b509250505060405180910390f35b3480156108aa57600080fd5b506108f7600480360360408110156108c157600080fd5b81019080803573ffffffffffffffffffffffffffffffffffffffff16906020019092919080359060200190929190505050612871565b005b34801561090557600080fd5b506109326004803603602081101561091c57600080fd5b81019080803590602001909291905050506129d3565b604051808273ffffffffffffffffffffffffffffffffffffffff1673ffffffffffffffffffffffffffffffffffffffff16815260200191505060405180910390f35b34801561098057600080fd5b506109ad6004803603602081101561099757600080fd5b8101908080359060200190929190505050612a9b565b005b3480156109bb57600080fd5b506109fe600480360360208110156109d257600080fd5b81019080803573ffffffffffffffffffffffffffffffffffffffff169060200190929190505050612b68565b6040518082815260200191505060405180910390f35b348015610a2057600080fd5b50610b9160048036036060811015610a3757600080fd5b8101908080359060200190640100000000811115610a5457600080fd5b820183602082011115610a6657600080fd5b80359060200191846001830284011164010000000083111715610a8857600080fd5b91908080601f016020809104026020016040519081016040528093929190818152602001838380828437600081840152601f19601f820116905080830192505050505050509192919290803573ffffffffffffffffffffffffffffffffffffffff16906020019092919080359060200190640100000000811115610b0b57600080fd5b820183602082011115610b1d57600080fd5b80359060200191846001830284011164010000000083111715610b3f57600080fd5b91908080601f016020809104026020016040519081016040528093929190818152602001838380828437600081840152601f19601f820116905080830192505050505050509192919290505050612c3d565b005b348015610b9f57600080fd5b50610c6360048036036040811015610bb657600080fd5b810190808035906020019092919080359060200190640100000000811115610bdd57600080fd5b820183602082011115610bef57600080fd5b80359060200191846001830284011164010000000083111715610c1157600080fd5b91908080601f016020809104026020016040519081016040528093929190818152602001838380828437600081840152601f19601f820116905080830192505050505050509192919290505050612e2e565b005b348015610c7157600080fd5b50610c9e60048036036020811015610c8857600080fd5b810190808035906020019092919050505061329e565b005b348015610cac57600080fd5b50610cb5613817565b604051808273ffffffffffffffffffffffffffffffffffffffff1673ffffffffffffffffffffffffffffffffffffffff16815260200191505060405180910390f35b610d4360048036036040811015610d0d57600080fd5b81019080803573ffffffffffffffffffffffffffffffffffffffff1690602001909291908035906020019092919050505061383d565b6040518082815260200191505060405180910390f35b348015610d6557600080fd5b50610db460048036036040811015610d7c57600080fd5b81019080803573ffffffffffffffffffffffffffffffffffffffff169060200190929190803515159060200190929190505050613a50565b005b348015610dc257600080fd5b50610def60048036036020811015610dd957600080fd5b8101908080359060200190929190505050613bf3565b604051808b8152602001806020018a81526020018973ffffffffffffffffffffffffffffffffffffffff1673ffffffffffffffffffffffffffffffffffffffff168152602001806020018873ffffffffffffffffffffffffffffffffffffffff1673ffffffffffffffffffffffffffffffffffffffff168152602001878152602001868152602001851515151581526020018415151515815260200183810383528c818151815260200191508051906020019080838360005b83811015610ec3578082015181840152602081019050610ea8565b50505050905090810190601f168015610ef05780820380516001836020036101000a031916815260200191505b50838103825289818151815260200191508051906020019080838360005b83811015610f29578082015181840152602081019050610f0e565b50505050905090810190601f168015610f565780820380516001836020036101000a031916815260200191505b509c5050505050505050505050505060405180910390f35b348015610f7a57600080fd5b5061107e60048036036080811015610f9157600080fd5b81019080803573ffffffffffffffffffffffffffffffffffffffff169060200190929190803573ffffffffffffffffffffffffffffffffffffffff1690602001909291908035906020019092919080359060200190640100000000811115610ff857600080fd5b82018360208201111561100a57600080fd5b8035906020019184600183028401116401000000008311171561102c57600080fd5b91908080601f016020809104026020016040519081016040528093929190818152602001838380828437600081840152601f19601f820116905080830192505050505050509192919290505050613ed7565b005b34801561108c57600080fd5b506110ef600480360360408110156110a357600080fd5b81019080803573ffffffffffffffffffffffffffffffffffffffff169060200190929190803573ffffffffffffffffffffffffffffffffffffffff169060200190929190505050613f49565b604051808215151515815260200191505060405180910390f35b34801561111557600080fd5b506111586004803603602081101561112c57600080fd5b81019080803573ffffffffffffffffffffffffffffffffffffffff169060200190929190505050613fdd565b60405180806020018473ffffffffffffffffffffffffffffffffffffffff1673ffffffffffffffffffffffffffffffffffffffff16815260200180602001838103835286818151815260200191508051906020019080838360005b838110156111ce5780820151818401526020810190506111b3565b50505050905090810190601f1680156111fb5780820380516001836020036101000a031916815260200191505b50838103825284818151815260200191508051906020019080838360005b83811015611234578082015181840152602081019050611219565b50505050905090810190601f1680156112615780820380516001836020036101000a031916815260200191505b509550505050505060405180910390f35b34801561127e57600080fd5b506112c16004803603602081101561129557600080fd5b81019080803573ffffffffffffffffffffffffffffffffffffffff16906020019092919050505061420f565b604051808215151515815260200191505060405180910390f35b6000806000837bffffffffffffffffffffffffffffffffffffffffffffffffffffffff19167bffffffffffffffffffffffffffffffffffffffffffffffffffffffff1916815260200190815260200160002060009054906101000a900460ff169050919050565b600061134d82614268565b6113a2576040517f08c379a000000000000000000000000000000000000000000000000000000000815260040180806020018281038252602c8152602001806155f8602c913960400191505060405180910390fd5b6002600083815260200190815260200160002060009054906101000a900473ffffffffffffffffffffffffffffffffffffffff169050919050565b60006113e8826129d3565b90508073ffffffffffffffffffffffffffffffffffffffff168373ffffffffffffffffffffffffffffffffffffffff16141561146f576040517f08c379a000000000000000000000000000000000000000000000000000000000815260040180806020018281038252602181526020018061564d6021913960400191505060405180910390fd5b8073ffffffffffffffffffffffffffffffffffffffff163373ffffffffffffffffffffffffffffffffffffffff1614806114af57506114ae8133613f49565b5b611504576040517f08c379a000000000000000000000000000000000000000000000000000000000815260040180806020018281038252603881526020018061554c6038913960400191505060405180910390fd5b826002600084815260200190815260200160002060006101000a81548173ffffffffffffffffffffffffffffffffffffffff021916908373ffffffffffffffffffffffffffffffffffffffff160217905550818373ffffffffffffffffffffffffffffffffffffffff168273ffffffffffffffffffffffffffffffffffffffff167f8c5be1e5ebec7d5bd14f71427d1e84f3dd0314c0f7b2291e5b200ac8c7c3b92560405160405180910390a4505050565b6000600780549050905090565b6000803390506001600b60008373ffffffffffffffffffffffffffffffffffffffff1673ffffffffffffffffffffffffffffffffffffffff168152602001908152602001600020541015611662576040517f08c379a00000000000000000000000000000000000000000000000000000000081526004018080602001828103825260228152602001806156cb6022913960400191505060405180910390fd5b60006116b76001600b60008573ffffffffffffffffffffffffffffffffffffffff1673ffffffffffffffffffffffffffffffffffffffff168152602001908152602001600020546142da90919063ffffffff16565b905080600b60008473ffffffffffffffffffffffffffffffffffffffff1673ffffffffffffffffffffffffffffffffffffffff168152602001908152602001600020819055506000600960008473ffffffffffffffffffffffffffffffffffffffff1673ffffffffffffffffffffffffffffffffffffffff168152602001908152602001600020896040518082805190602001908083835b60208310611772578051825260208201915060208101905060208303925061174f565b6001836020036101000a038019825116818451168082178552505050505050905001915050908152602001604051809103902080549050905060006117b68461420f565b905060008a898b878b8b426040516020018088805190602001908083835b602083106117f757805182526020820191506020810190506020830392506117d4565b6001836020036101000a03801982511681845116808217855250505050505090500187805190602001908083835b602083106118485780518252602082019150602081019050602083039250611825565b6001836020036101000a0380198251168184511680821785525050505050509050018673ffffffffffffffffffffffffffffffffffffffff1673ffffffffffffffffffffffffffffffffffffffff166c010000000000000000000000000281526014018573ffffffffffffffffffffffffffffffffffffffff1673ffffffffffffffffffffffffffffffffffffffff166c0100000000000000000000000002815260140184151515157f01000000000000000000000000000000000000000000000000000000000000000281526001018381526020018281526020019750505050505050506040516020818303038152906040528051906020012060019004905061195161528a565b6040518061014001604052808381526020018d81526020018581526020018773ffffffffffffffffffffffffffffffffffffffff1681526020018b81526020018c73ffffffffffffffffffffffffffffffffffffffff1681526020018981526020014281526020018a151581526020018415158152509050600960008773ffffffffffffffffffffffffffffffffffffffff1673ffffffffffffffffffffffffffffffffffffffff1681526020019081526020016000208c6040518082805190602001908083835b60208310611a3c5780518252602082019150602081019050602083039250611a19565b6001836020036101000a038019825116818451168082178552505050505050905001915050908152602001604051809103902082908060018154018082558091505090600182039060005260206000200160009091929091909150555080600a6000848152602001908152602001600020600082015181600001556020820151816001019080519060200190611ad392919061530d565b506040820151816002015560608201518160030160006101000a81548173ffffffffffffffffffffffffffffffffffffffff021916908373ffffffffffffffffffffffffffffffffffffffff1602179055506080820151816004019080519060200190611b4192919061530d565b5060a08201518160050160006101000a81548173ffffffffffffffffffffffffffffffffffffffff021916908373ffffffffffffffffffffffffffffffffffffffff16021790555060c0820151816006015560e082015181600701556101008201518160080160006101000a81548160ff0219169083151502179055506101208201518160080160016101000a81548160ff021916908315150217905550905050611bec8b83614363565b8b6040518082805190602001908083835b60208310611c205780518252602082019150602081019050602083039250611bfd565b6001836020036101000a0380198251168184511680821785525050505050509050019150506040518091039020827f0eec318e386a2a8183a48757c1fd0c00f0af2693b1c5768e6bb9ed1f2204923a868d8f8b8f8a8960c001514260405180898152602001806020018873ffffffffffffffffffffffffffffffffffffffff1673ffffffffffffffffffffffffffffffffffffffff1681526020018773ffffffffffffffffffffffffffffffffffffffff1673ffffffffffffffffffffffffffffffffffffffff1681526020018615151515815260200185151515158152602001848152602001838152602001828103825289818151815260200191508051906020019080838360005b83811015611d45578082015181840152602081019050611d2a565b50505050905090810190601f168015611d725780820380516001836020036101000a031916815260200191505b50995050505050505050505060405180910390a381965050505050505095945050505050565b6000600b60008373ffffffffffffffffffffffffffffffffffffffff1673ffffffffffffffffffffffffffffffffffffffff168152602001908152602001600020549050919050565b611deb3382614384565b611e40576040517f08c379a000000000000000000000000000000000000000000000000000000000815260040180806020018281038252603181526020018061566e6031913960400191505060405180910390fd5b611e4b838383614478565b505050565b600e60009054906101000a900473ffffffffffffffffffffffffffffffffffffffff1673ffffffffffffffffffffffffffffffffffffffff163373ffffffffffffffffffffffffffffffffffffffff1614611f13576040517f08c379a000000000000000000000000000000000000000000000000000000000815260040180806020018281038252600a8152602001807f4f6e6c79204f776e65720000000000000000000000000000000000000000000081525060200191505060405180910390fd5b611f1b61538d565b6040518060800160405280604051806020016040528060008152508152602001600073ffffffffffffffffffffffffffffffffffffffff16815260200160405180602001604052806000815250815260200160001515815250905080600c60008473ffffffffffffffffffffffffffffffffffffffff1673ffffffffffffffffffffffffffffffffffffffff1681526020019081526020016000206000820151816000019080519060200190611fd292919061530d565b5060208201518160010160006101000a81548173ffffffffffffffffffffffffffffffffffffffff021916908373ffffffffffffffffffffffffffffffffffffffff160217905550604082015181600201908051906020019061203692919061530d565b5060608201518160030160006101000a81548160ff0219169083151502179055509050505050565b61206661528a565b600a60008481526020019081526020016000206040518061014001604052908160008201548152602001600182018054600181600116156101000203166002900480601f0160208091040260200160405190810160405280929190818152602001828054600181600116156101000203166002900480156121285780601f106120fd57610100808354040283529160200191612128565b820191906000526020600020905b81548152906001019060200180831161210b57829003601f168201915b50505050508152602001600282015481526020016003820160009054906101000a900473ffffffffffffffffffffffffffffffffffffffff1673ffffffffffffffffffffffffffffffffffffffff1673ffffffffffffffffffffffffffffffffffffffff168152602001600482018054600181600116156101000203166002900480601f01602080910402602001604051908101604052809291908181526020018280546001816001161561010002031660029004801561222a5780601f106121ff5761010080835404028352916020019161222a565b820191906000526020600020905b81548152906001019060200180831161220d57829003601f168201915b505050505081526020016005820160009054906101000a900473ffffffffffffffffffffffffffffffffffffffff1673ffffffffffffffffffffffffffffffffffffffff1673ffffffffffffffffffffffffffffffffffffffff16815260200160068201548152602001600782015481526020016008820160009054906101000a900460ff161515151581526020016008820160019054906101000a900460ff1615151515815250509050600e60009054906101000a900473ffffffffffffffffffffffffffffffffffffffff1673ffffffffffffffffffffffffffffffffffffffff163373ffffffffffffffffffffffffffffffffffffffff1614806123605750806060015173ffffffffffffffffffffffffffffffffffffffff163373ffffffffffffffffffffffffffffffffffffffff16145b8061239a57508060a0015173ffffffffffffffffffffffffffffffffffffffff163373ffffffffffffffffffffffffffffffffffffffff16145b61240c576040517f08c379a000000000000000000000000000000000000000000000000000000000815260040180806020018281038252601c8152602001807f4255524e204552524f522c205065726d697373696f6e204572726f720000000081525060200191505060405180910390fd5b600a600084815260200190815260200160002060080160009054906101000a900460ff166124a2576040517f08c379a000000000000000000000000000000000000000000000000000000000815260040180806020018281038252601d8152602001807f5468697320746f6b656e2063616e27742062652065786368616e67656400000081525060200191505060405180910390fd5b6124ad338385614478565b818160a0019073ffffffffffffffffffffffffffffffffffffffff16908173ffffffffffffffffffffffffffffffffffffffff168152505080600a600085815260200190815260200160002060008201518160000155602082015181600101908051906020019061251f92919061530d565b506040820151816002015560608201518160030160006101000a81548173ffffffffffffffffffffffffffffffffffffffff021916908373ffffffffffffffffffffffffffffffffffffffff160217905550608082015181600401908051906020019061258d92919061530d565b5060a08201518160050160006101000a81548173ffffffffffffffffffffffffffffffffffffffff021916908373ffffffffffffffffffffffffffffffffffffffff16021790555060c0820151816006015560e082015181600701556101008201518160080160006101000a81548160ff0219169083151502179055506101208201518160080160016101000a81548160ff021916908315150217905550905050505050565b600061263e83612b68565b8210612695576040517f08c379a000000000000000000000000000000000000000000000000000000000815260040180806020018281038252602b81526020018061549f602b913960400191505060405180910390fd5b600560008473ffffffffffffffffffffffffffffffffffffffff1673ffffffffffffffffffffffffffffffffffffffff16815260200190815260200160002082815481106126df57fe5b9060005260206000200154905092915050565b61270d83838360405180602001604052806000815250613ed7565b505050565b600061271c6115b6565b905090565b600061272b6115b6565b8210612782576040517f08c379a000000000000000000000000000000000000000000000000000000000815260040180806020018281038252602c81526020018061569f602c913960400191505060405180910390fd5b6007828154811061278f57fe5b90600052602060002001549050919050565b606080600d600085815260200190815260200160002083815481106127c257fe5b906000526020600020018054600181600116156101000203166002900480601f0160208091040260200160405190810160405280929190818152602001828054600181600116156101000203166002900480156128605780601f1061283557610100808354040283529160200191612860565b820191906000526020600020905b81548152906001019060200180831161284357829003601f168201915b505050505090508091505092915050565b600e60009054906101000a900473ffffffffffffffffffffffffffffffffffffffff1673ffffffffffffffffffffffffffffffffffffffff163373ffffffffffffffffffffffffffffffffffffffff1614612934576040517f08c379a000000000000000000000000000000000000000000000000000000000815260040180806020018281038252600a8152602001807f4f6e6c79204f776e65720000000000000000000000000000000000000000000081525060200191505060405180910390fd5b600061298882600b60008673ffffffffffffffffffffffffffffffffffffffff1673ffffffffffffffffffffffffffffffffffffffff1681526020019081526020016000205461449c90919063ffffffff16565b905080600b60008573ffffffffffffffffffffffffffffffffffffffff1673ffffffffffffffffffffffffffffffffffffffff16815260200190815260200160002081905550505050565b6000806001600084815260200190815260200160002060009054906101000a900473ffffffffffffffffffffffffffffffffffffffff169050600073ffffffffffffffffffffffffffffffffffffffff168173ffffffffffffffffffffffffffffffffffffffff161415612a92576040517f08c379a00000000000000000000000000000000000000000000000000000000081526004018080602001828103825260298152602001806155ae6029913960400191505060405180910390fd5b80915050919050565b600e60009054906101000a900473ffffffffffffffffffffffffffffffffffffffff1673ffffffffffffffffffffffffffffffffffffffff163373ffffffffffffffffffffffffffffffffffffffff1614612b5e576040517f08c379a000000000000000000000000000000000000000000000000000000000815260040180806020018281038252600a8152602001807f4f6e6c79204f776e65720000000000000000000000000000000000000000000081525060200191505060405180910390fd5b80600f8190555050565b60008073ffffffffffffffffffffffffffffffffffffffff168273ffffffffffffffffffffffffffffffffffffffff161415612bef576040517f08c379a000000000000000000000000000000000000000000000000000000000815260040180806020018281038252602a815260200180615584602a913960400191505060405180910390fd5b612c36600360008473ffffffffffffffffffffffffffffffffffffffff1673ffffffffffffffffffffffffffffffffffffffff168152602001908152602001600020614524565b9050919050565b600e60009054906101000a900473ffffffffffffffffffffffffffffffffffffffff1673ffffffffffffffffffffffffffffffffffffffff163373ffffffffffffffffffffffffffffffffffffffff1614612d00576040517f08c379a000000000000000000000000000000000000000000000000000000000815260040180806020018281038252600a8152602001807f4f6e6c79204f776e65720000000000000000000000000000000000000000000081525060200191505060405180910390fd5b612d0861538d565b60405180608001604052808581526020018473ffffffffffffffffffffffffffffffffffffffff16815260200183815260200160011515815250905080600c60008573ffffffffffffffffffffffffffffffffffffffff1673ffffffffffffffffffffffffffffffffffffffff1681526020019081526020016000206000820151816000019080519060200190612da092919061530d565b5060208201518160010160006101000a81548173ffffffffffffffffffffffffffffffffffffffff021916908373ffffffffffffffffffffffffffffffffffffffff1602179055506040820151816002019080519060200190612e0492919061530d565b5060608201518160030160006101000a81548160ff02191690831515021790555090505050505050565b612e3661528a565b600a60008481526020019081526020016000206040518061014001604052908160008201548152602001600182018054600181600116156101000203166002900480601f016020809104026020016040519081016040528092919081815260200182805460018160011615610100020316600290048015612ef85780601f10612ecd57610100808354040283529160200191612ef8565b820191906000526020600020905b815481529060010190602001808311612edb57829003601f168201915b50505050508152602001600282015481526020016003820160009054906101000a900473ffffffffffffffffffffffffffffffffffffffff1673ffffffffffffffffffffffffffffffffffffffff1673ffffffffffffffffffffffffffffffffffffffff168152602001600482018054600181600116156101000203166002900480601f016020809104026020016040519081016040528092919081815260200182805460018160011615610100020316600290048015612ffa5780601f10612fcf57610100808354040283529160200191612ffa565b820191906000526020600020905b815481529060010190602001808311612fdd57829003601f168201915b505050505081526020016005820160009054906101000a900473ffffffffffffffffffffffffffffffffffffffff1673ffffffffffffffffffffffffffffffffffffffff1673ffffffffffffffffffffffffffffffffffffffff16815260200160068201548152602001600782015481526020016008820160009054906101000a900460ff161515151581526020016008820160019054906101000a900460ff1615151515815250509050600073ffffffffffffffffffffffffffffffffffffffff168160a0015173ffffffffffffffffffffffffffffffffffffffff16141561314c576040517f08c379a000000000000000000000000000000000000000000000000000000000815260040180806020018281038252600c8152602001807f4e6f20737563682043657274000000000000000000000000000000000000000081525060200191505060405180910390fd5b600e60009054906101000a900473ffffffffffffffffffffffffffffffffffffffff1673ffffffffffffffffffffffffffffffffffffffff163373ffffffffffffffffffffffffffffffffffffffff1614806131d757508060a0015173ffffffffffffffffffffffffffffffffffffffff163373ffffffffffffffffffffffffffffffffffffffff16145b613249576040517f08c379a000000000000000000000000000000000000000000000000000000000815260040180806020018281038252601f8152602001807f41646420736967206572726f722c205065726d697373696f6e204572726f720081525060200191505060405180910390fd5b600d60008481526020019081526020016000208290806001815401808255809150509060018203906000526020600020016000909192909190915090805190602001906132979291906153cd565b5050505050565b6132a661528a565b600a60008381526020019081526020016000206040518061014001604052908160008201548152602001600182018054600181600116156101000203166002900480601f0160208091040260200160405190810160405280929190818152602001828054600181600116156101000203166002900480156133685780601f1061333d57610100808354040283529160200191613368565b820191906000526020600020905b81548152906001019060200180831161334b57829003601f168201915b50505050508152602001600282015481526020016003820160009054906101000a900473ffffffffffffffffffffffffffffffffffffffff1673ffffffffffffffffffffffffffffffffffffffff1673ffffffffffffffffffffffffffffffffffffffff168152602001600482018054600181600116156101000203166002900480601f01602080910402602001604051908101604052809291908181526020018280546001816001161561010002031660029004801561346a5780601f1061343f5761010080835404028352916020019161346a565b820191906000526020600020905b81548152906001019060200180831161344d57829003601f168201915b505050505081526020016005820160009054906101000a900473ffffffffffffffffffffffffffffffffffffffff1673ffffffffffffffffffffffffffffffffffffffff1673ffffffffffffffffffffffffffffffffffffffff16815260200160068201548152602001600782015481526020016008820160009054906101000a900460ff161515151581526020016008820160019054906101000a900460ff1615151515815250509050600e60009054906101000a900473ffffffffffffffffffffffffffffffffffffffff1673ffffffffffffffffffffffffffffffffffffffff163373ffffffffffffffffffffffffffffffffffffffff1614806135a05750806060015173ffffffffffffffffffffffffffffffffffffffff163373ffffffffffffffffffffffffffffffffffffffff16145b806135da57508060a0015173ffffffffffffffffffffffffffffffffffffffff163373ffffffffffffffffffffffffffffffffffffffff16145b61364c576040517f08c379a000000000000000000000000000000000000000000000000000000000815260040180806020018281038252601c8152602001807f4255524e204552524f522c205065726d697373696f6e204572726f720000000081525060200191505060405180910390fd5b61365a8160a0015183614532565b60008160a0019073ffffffffffffffffffffffffffffffffffffffff16908173ffffffffffffffffffffffffffffffffffffffff168152505080600a60008481526020019081526020016000206000820151816000015560208201518160010190805190602001906136cd92919061530d565b506040820151816002015560608201518160030160006101000a81548173ffffffffffffffffffffffffffffffffffffffff021916908373ffffffffffffffffffffffffffffffffffffffff160217905550608082015181600401908051906020019061373b92919061530d565b5060a08201518160050160006101000a81548173ffffffffffffffffffffffffffffffffffffffff021916908373ffffffffffffffffffffffffffffffffffffffff16021790555060c0820151816006015560e082015181600701556101008201518160080160006101000a81548160ff0219169083151502179055506101208201518160080160016101000a81548160ff0219169083151502179055509050507fd99b42071f0cc8b5e257f17d4c01e3ed9abd32df87ad8877df91e4e528ecb36b826040518082815260200191505060405180910390a15050565b600e60009054906101000a900473ffffffffffffffffffffffffffffffffffffffff1681565b60008082116138b4576040517f08c379a00000000000000000000000000000000000000000000000000000000081526004018080602001828103825260148152602001807f4e6565647320706f7369746976652076616c756500000000000000000000000081525060200191505060405180910390fd5b60006138cb600f548461456c90919063ffffffff16565b9050803411613942576040517f08c379a00000000000000000000000000000000000000000000000000000000081526004018080602001828103825260108152602001807f4e6f7420656e6f756768206d6f6e65790000000000000000000000000000000081525060200191505060405180910390fd5b600e60009054906101000a900473ffffffffffffffffffffffffffffffffffffffff1673ffffffffffffffffffffffffffffffffffffffff166108fc829081150290604051600060405180830381858888f193505050501580156139aa573d6000803e3d6000fd5b5060006139ff84600b60008873ffffffffffffffffffffffffffffffffffffffff1673ffffffffffffffffffffffffffffffffffffffff1681526020019081526020016000205461449c90919063ffffffff16565b905080600b60008773ffffffffffffffffffffffffffffffffffffffff1673ffffffffffffffffffffffffffffffffffffffff16815260200190815260200160002081905550809250505092915050565b3373ffffffffffffffffffffffffffffffffffffffff168273ffffffffffffffffffffffffffffffffffffffff161415613af2576040517f08c379a00000000000000000000000000000000000000000000000000000000081526004018080602001828103825260198152602001807f4552433732313a20617070726f766520746f2063616c6c65720000000000000081525060200191505060405180910390fd5b80600460003373ffffffffffffffffffffffffffffffffffffffff1673ffffffffffffffffffffffffffffffffffffffff16815260200190815260200160002060008473ffffffffffffffffffffffffffffffffffffffff1673ffffffffffffffffffffffffffffffffffffffff16815260200190815260200160002060006101000a81548160ff0219169083151502179055508173ffffffffffffffffffffffffffffffffffffffff163373ffffffffffffffffffffffffffffffffffffffff167f17307eab39ab6107e8899845ad3d59bd9653f200f220920489ca2b5937696c3183604051808215151515815260200191505060405180910390a35050565b6000606060008060606000806000806000613c0c61528a565b600a60008d81526020019081526020016000206040518061014001604052908160008201548152602001600182018054600181600116156101000203166002900480601f016020809104026020016040519081016040528092919081815260200182805460018160011615610100020316600290048015613cce5780601f10613ca357610100808354040283529160200191613cce565b820191906000526020600020905b815481529060010190602001808311613cb157829003601f168201915b50505050508152602001600282015481526020016003820160009054906101000a900473ffffffffffffffffffffffffffffffffffffffff1673ffffffffffffffffffffffffffffffffffffffff1673ffffffffffffffffffffffffffffffffffffffff168152602001600482018054600181600116156101000203166002900480601f016020809104026020016040519081016040528092919081815260200182805460018160011615610100020316600290048015613dd05780601f10613da557610100808354040283529160200191613dd0565b820191906000526020600020905b815481529060010190602001808311613db357829003601f168201915b505050505081526020016005820160009054906101000a900473ffffffffffffffffffffffffffffffffffffffff1673ffffffffffffffffffffffffffffffffffffffff1673ffffffffffffffffffffffffffffffffffffffff16815260200160068201548152602001600782015481526020016008820160009054906101000a900460ff161515151581526020016008820160019054906101000a900460ff1615151515815250509050806000015181602001518260400151836060015184608001518560a001518660c001518760e001518861010001518961012001518898508595509a509a509a509a509a509a509a509a509a509a50509193959799509193959799565b613ee2848484611de1565b613eee848484846145f2565b613f43576040517f08c379a00000000000000000000000000000000000000000000000000000000081526004018080602001828103825260328152602001806154ca6032913960400191505060405180910390fd5b50505050565b6000600460008473ffffffffffffffffffffffffffffffffffffffff1673ffffffffffffffffffffffffffffffffffffffff16815260200190815260200160002060008373ffffffffffffffffffffffffffffffffffffffff1673ffffffffffffffffffffffffffffffffffffffff16815260200190815260200160002060009054906101000a900460ff16905092915050565b606060006060613feb61538d565b600c60008673ffffffffffffffffffffffffffffffffffffffff1673ffffffffffffffffffffffffffffffffffffffff168152602001908152602001600020604051806080016040529081600082018054600181600116156101000203166002900480601f0160208091040260200160405190810160405280929190818152602001828054600181600116156101000203166002900480156140ce5780601f106140a3576101008083540402835291602001916140ce565b820191906000526020600020905b8154815290600101906020018083116140b157829003601f168201915b505050505081526020016001820160009054906101000a900473ffffffffffffffffffffffffffffffffffffffff1673ffffffffffffffffffffffffffffffffffffffff1673ffffffffffffffffffffffffffffffffffffffff168152602001600282018054600181600116156101000203166002900480601f0160208091040260200160405190810160405280929190818152602001828054600181600116156101000203166002900480156141c65780601f1061419b576101008083540402835291602001916141c6565b820191906000526020600020905b8154815290600101906020018083116141a957829003601f168201915b505050505081526020016003820160009054906101000a900460ff1615151515815250509050806000015181602001518260400151829250809050935093509350509193909250565b6000600c60008373ffffffffffffffffffffffffffffffffffffffff1673ffffffffffffffffffffffffffffffffffffffff16815260200190815260200160002060030160009054906101000a900460ff169050919050565b6000806001600084815260200190815260200160002060009054906101000a900473ffffffffffffffffffffffffffffffffffffffff169050600073ffffffffffffffffffffffffffffffffffffffff168173ffffffffffffffffffffffffffffffffffffffff161415915050919050565b600082821115614352576040517f08c379a000000000000000000000000000000000000000000000000000000000815260040180806020018281038252601e8152602001807f536166654d6174683a207375627472616374696f6e206f766572666c6f77000081525060200191505060405180910390fd5b600082840390508091505092915050565b61436d8282614813565b6143778282614a2b565b61438081614af2565b5050565b600061438f82614268565b6143e4576040517f08c379a000000000000000000000000000000000000000000000000000000000815260040180806020018281038252602c815260200180615520602c913960400191505060405180910390fd5b60006143ef836129d3565b90508073ffffffffffffffffffffffffffffffffffffffff168473ffffffffffffffffffffffffffffffffffffffff16148061445e57508373ffffffffffffffffffffffffffffffffffffffff1661444684611342565b73ffffffffffffffffffffffffffffffffffffffff16145b8061446f575061446e8185613f49565b5b91505092915050565b614483838383614b3e565b61448d8382614d99565b6144978282614a2b565b505050565b60008082840190508381101561451a576040517f08c379a000000000000000000000000000000000000000000000000000000000815260040180806020018281038252601b8152602001807f536166654d6174683a206164646974696f6e206f766572666c6f77000000000081525060200191505060405180910390fd5b8091505092915050565b600081600001549050919050565b61453c8282614f37565b6145468282614d99565b60006006600083815260200190815260200160002081905550614568816150c6565b5050565b60008083141561457f57600090506145ec565b600082840290508284828161459057fe5b04146145e7576040517f08c379a00000000000000000000000000000000000000000000000000000000081526004018080602001828103825260218152602001806155d76021913960400191505060405180910390fd5b809150505b92915050565b60006146138473ffffffffffffffffffffffffffffffffffffffff16615180565b614620576001905061480b565b60008473ffffffffffffffffffffffffffffffffffffffff1663150b7a02338887876040518563ffffffff167c0100000000000000000000000000000000000000000000000000000000028152600401808573ffffffffffffffffffffffffffffffffffffffff1673ffffffffffffffffffffffffffffffffffffffff1681526020018473ffffffffffffffffffffffffffffffffffffffff1673ffffffffffffffffffffffffffffffffffffffff16815260200183815260200180602001828103825283818151815260200191508051906020019080838360005b838110156147175780820151818401526020810190506146fc565b50505050905090810190601f1680156147445780820380516001836020036101000a031916815260200191505b5095505050505050602060405180830381600087803b15801561476657600080fd5b505af115801561477a573d6000803e3d6000fd5b505050506040513d602081101561479057600080fd5b8101908080519060200190929190505050905063150b7a027c0100000000000000000000000000000000000000000000000000000000027bffffffffffffffffffffffffffffffffffffffffffffffffffffffff1916817bffffffffffffffffffffffffffffffffffffffffffffffffffffffff1916149150505b949350505050565b600073ffffffffffffffffffffffffffffffffffffffff168273ffffffffffffffffffffffffffffffffffffffff1614156148b6576040517f08c379a00000000000000000000000000000000000000000000000000000000081526004018080602001828103825260208152602001807f4552433732313a206d696e7420746f20746865207a65726f206164647265737381525060200191505060405180910390fd5b6148bf81614268565b15614932576040517f08c379a000000000000000000000000000000000000000000000000000000000815260040180806020018281038252601c8152602001807f4552433732313a20746f6b656e20616c7265616479206d696e7465640000000081525060200191505060405180910390fd5b816001600083815260200190815260200160002060006101000a81548173ffffffffffffffffffffffffffffffffffffffff021916908373ffffffffffffffffffffffffffffffffffffffff1602179055506149cb600360008473ffffffffffffffffffffffffffffffffffffffff1673ffffffffffffffffffffffffffffffffffffffff168152602001908152602001600020615193565b808273ffffffffffffffffffffffffffffffffffffffff16600073ffffffffffffffffffffffffffffffffffffffff167fddf252ad1be2c89b69c2b068fc378daa952ba7f163c4a11628f55a4df523b3ef60405160405180910390a45050565b600560008373ffffffffffffffffffffffffffffffffffffffff1673ffffffffffffffffffffffffffffffffffffffff168152602001908152602001600020805490506006600083815260200190815260200160002081905550600560008373ffffffffffffffffffffffffffffffffffffffff1673ffffffffffffffffffffffffffffffffffffffff1681526020019081526020016000208190806001815401808255809150509060018203906000526020600020016000909192909190915055505050565b6007805490506008600083815260200190815260200160002081905550600781908060018154018082558091505090600182039060005260206000200160009091929091909150555050565b8273ffffffffffffffffffffffffffffffffffffffff16614b5e826129d3565b73ffffffffffffffffffffffffffffffffffffffff1614614bca576040517f08c379a00000000000000000000000000000000000000000000000000000000081526004018080602001828103825260298152602001806156246029913960400191505060405180910390fd5b600073ffffffffffffffffffffffffffffffffffffffff168273ffffffffffffffffffffffffffffffffffffffff161415614c50576040517f08c379a00000000000000000000000000000000000000000000000000000000081526004018080602001828103825260248152602001806154fc6024913960400191505060405180910390fd5b614c59816151a9565b614ca0600360008573ffffffffffffffffffffffffffffffffffffffff1673ffffffffffffffffffffffffffffffffffffffff168152602001908152602001600020615267565b614ce7600360008473ffffffffffffffffffffffffffffffffffffffff1673ffffffffffffffffffffffffffffffffffffffff168152602001908152602001600020615193565b816001600083815260200190815260200160002060006101000a81548173ffffffffffffffffffffffffffffffffffffffff021916908373ffffffffffffffffffffffffffffffffffffffff160217905550808273ffffffffffffffffffffffffffffffffffffffff168473ffffffffffffffffffffffffffffffffffffffff167fddf252ad1be2c89b69c2b068fc378daa952ba7f163c4a11628f55a4df523b3ef60405160405180910390a4505050565b6000614df16001600560008673ffffffffffffffffffffffffffffffffffffffff1673ffffffffffffffffffffffffffffffffffffffff168152602001908152602001600020805490506142da90919063ffffffff16565b9050600060066000848152602001908152602001600020549050818114614ede576000600560008673ffffffffffffffffffffffffffffffffffffffff1673ffffffffffffffffffffffffffffffffffffffff1681526020019081526020016000208381548110614e5e57fe5b9060005260206000200154905080600560008773ffffffffffffffffffffffffffffffffffffffff1673ffffffffffffffffffffffffffffffffffffffff1681526020019081526020016000208381548110614eb657fe5b9060005260206000200181905550816006600083815260200190815260200160002081905550505b600560008573ffffffffffffffffffffffffffffffffffffffff1673ffffffffffffffffffffffffffffffffffffffff168152602001908152602001600020805480919060019003614f30919061544d565b5050505050565b8173ffffffffffffffffffffffffffffffffffffffff16614f57826129d3565b73ffffffffffffffffffffffffffffffffffffffff1614614fc3576040517f08c379a00000000000000000000000000000000000000000000000000000000081526004018080602001828103825260258152602001806156ed6025913960400191505060405180910390fd5b614fcc816151a9565b615013600360008473ffffffffffffffffffffffffffffffffffffffff1673ffffffffffffffffffffffffffffffffffffffff168152602001908152602001600020615267565b60006001600083815260200190815260200160002060006101000a81548173ffffffffffffffffffffffffffffffffffffffff021916908373ffffffffffffffffffffffffffffffffffffffff16021790555080600073ffffffffffffffffffffffffffffffffffffffff168373ffffffffffffffffffffffffffffffffffffffff167fddf252ad1be2c89b69c2b068fc378daa952ba7f163c4a11628f55a4df523b3ef60405160405180910390a45050565b60006150e160016007805490506142da90919063ffffffff16565b905060006008600084815260200190815260200160002054905060006007838154811061510a57fe5b90600052602060002001549050806007838154811061512557fe5b90600052602060002001819055508160086000838152602001908152602001600020819055506007805480919060019003615160919061544d565b506000600860008681526020019081526020016000208190555050505050565b600080823b905060008111915050919050565b6001816000016000828254019250508190555050565b600073ffffffffffffffffffffffffffffffffffffffff166002600083815260200190815260200160002060009054906101000a900473ffffffffffffffffffffffffffffffffffffffff1673ffffffffffffffffffffffffffffffffffffffff16146152645760006002600083815260200190815260200160002060006101000a81548173ffffffffffffffffffffffffffffffffffffffff021916908373ffffffffffffffffffffffffffffffffffffffff1602179055505b50565b61527f600182600001546142da90919063ffffffff16565b816000018190555050565b604051806101400160405280600081526020016060815260200160008152602001600073ffffffffffffffffffffffffffffffffffffffff16815260200160608152602001600073ffffffffffffffffffffffffffffffffffffffff16815260200160008152602001600081526020016000151581526020016000151581525090565b828054600181600116156101000203166002900490600052602060002090601f016020900481019282601f1061534e57805160ff191683800117855561537c565b8280016001018555821561537c579182015b8281111561537b578251825591602001919060010190615360565b5b5090506153899190615479565b5090565b604051806080016040528060608152602001600073ffffffffffffffffffffffffffffffffffffffff168152602001606081526020016000151581525090565b828054600181600116156101000203166002900490600052602060002090601f016020900481019282601f1061540e57805160ff191683800117855561543c565b8280016001018555821561543c579182015b8281111561543b578251825591602001919060010190615420565b5b5090506154499190615479565b5090565b815481835581811115615474578183600052602060002091820191016154739190615479565b5b505050565b61549b91905b8082111561549757600081600090555060010161547f565b5090565b9056fe455243373231456e756d657261626c653a206f776e657220696e646578206f7574206f6620626f756e64734552433732313a207472616e7366657220746f206e6f6e20455243373231526563656976657220696d706c656d656e7465724552433732313a207472616e7366657220746f20746865207a65726f20616464726573734552433732313a206f70657261746f7220717565727920666f72206e6f6e6578697374656e7420746f6b656e4552433732313a20617070726f76652063616c6c6572206973206e6f74206f776e6572206e6f7220617070726f76656420666f7220616c6c4552433732313a2062616c616e636520717565727920666f7220746865207a65726f20616464726573734552433732313a206f776e657220717565727920666f72206e6f6e6578697374656e7420746f6b656e536166654d6174683a206d756c7469706c69636174696f6e206f766572666c6f774552433732313a20617070726f76656420717565727920666f72206e6f6e6578697374656e7420746f6b656e4552433732313a207472616e73666572206f6620746f6b656e2074686174206973206e6f74206f776e4552433732313a20617070726f76616c20746f2063757272656e74206f776e65724552433732313a207472616e736665722063616c6c6572206973206e6f74206f776e6572206e6f7220617070726f766564455243373231456e756d657261626c653a20676c6f62616c20696e646578206f7574206f6620626f756e6473596f7520646f6e2774206861766520656e6f75676820456d7074792043657274732e4552433732313a206275726e206f6620746f6b656e2074686174206973206e6f74206f776ea165627a7a72305820217c96c264cbfb5cc6a99abd1392ffdef1be773ac989fba9bfe7fe0adc16d9e70029",
  "source": "pragma solidity ^0.5.6;\r\n\r\nimport \"./ERC721/ERC721Enumerable.sol\";\r\n\r\ncontract CertToken is ERC721Enumerable{\r\n    \r\n    using SafeMath for uint8;\r\n    using SafeMath for uint256;\r\n\r\n    struct Cert {\r\n        uint256 tokenId;    // ''  \r\n\r\n        string  name;       //  \r\n        uint256 num;        //  no.\r\n        address issuer;     //  \r\n        string  imgurl;     // IPFS   \r\n        address holder;     //  \r\n        uint    date;       //  \r\n        uint    mintDate;   //    \r\n\r\n        bool    exchangable;   //  \r\n        bool    authorized;    //   \r\n    }\r\n    \r\n    //     \r\n    struct  AuthorizedIssuer {\r\n        string  name;           //  \r\n        address issuerAddress;  //  \r\n        string  url;            //  url\r\n        bool    authorized;     //  \r\n    }\r\n\r\n    mapping (address => mapping(string => uint256[])) private _issuer2Certs;\r\n    mapping (uint256 => Cert) private _id2Certs;\r\n\r\n    mapping (address => uint256) private _address2EmptyCert; // TODO:   \r\n    mapping (address => AuthorizedIssuer) private _authorizedList;\r\n    mapping (uint256 => string[]) private _cert2sig;\r\n\r\n    address payable public owner;\r\n\r\n    // 1000000000000000000 Peb = klay\r\n    uint256 private issueFee;\r\n\r\n    event NewCert(uint256 indexed tokenId, string indexed name, uint no, string url, address holder, address issuer, bool exchangable, bool authorized, uint date, uint now);    \r\n    event BurnCert(uint256 tokenId);\r\n\r\n    constructor() public {\r\n        owner = msg.sender; // cert contract's owner\r\n        issueFee = 100000000000000000; // 0.1klay\r\n    }\r\n    \r\n    \r\n    function changeFee(uint256 _fee) onlyOwner public{\r\n        issueFee = _fee;\r\n    }\r\n\r\n    function mintCert(string memory _name, address _holder, string memory _url, bool _exchangable, uint256 _date)\r\n    public payable\r\n    returns(uint256){\r\n        \r\n\r\n        //     \r\n        address issuer = msg.sender;\r\n\r\n        require (_address2EmptyCert[issuer] >= 1, \"You don't have enough Empty Certs.\");\r\n        uint256 totalAmount = _address2EmptyCert[issuer].sub(1);\r\n        _address2EmptyCert[issuer] = totalAmount;\r\n\r\n        uint256 certNo = _issuer2Certs[issuer][_name].length; //     No\r\n        bool authorized = isAuthorized(issuer);\r\n        \r\n        uint256 tokenId = uint256(keccak256(abi.encodePacked(_name, _url, _holder, issuer, _exchangable, _date, block.timestamp)));\r\n\r\n        // TODO: ERC721   . holder \r\n        Cert memory newCert = Cert({\r\n            tokenId     : tokenId,\r\n            name        : _name,    // cert name\r\n            num         : certNo,   // cert no.\r\n            imgurl      : _url,     // IPFS\r\n            holder      : _holder,\r\n            date        : _date,\r\n            mintDate    : block.timestamp,\r\n            issuer      : issuer,\r\n            exchangable : _exchangable,\r\n            authorized  : authorized\r\n        });\r\n        \r\n        _issuer2Certs[issuer][_name].push(tokenId);\r\n        _id2Certs[tokenId] = newCert;\r\n        _mint(_holder, tokenId); //   \r\n        \r\n        // event NewCert(uint256 indexed tokenId, string indexed name, uint no, string url, address holder, address issuer, bool exchangable, bool authorized, uint date, uint now);    \r\n\r\n        emit NewCert(tokenId, _name, certNo, _url, _holder, issuer, _exchangable, authorized, newCert.date, now);\r\n        return tokenId;\r\n    }\r\n    \r\n    // TODO :  holder, owner(byobl), issuer?\r\n    function burnCert(uint256 _tokenId) public{\r\n\r\n        Cert memory targetCert = _id2Certs[_tokenId];\r\n        require((msg.sender == owner || msg.sender == targetCert.issuer || msg.sender == targetCert.holder), \"BURN ERROR, Permission Error\");\r\n\r\n        _burn(targetCert.holder, _tokenId);\r\n\r\n        targetCert.holder = address(0);\r\n        _id2Certs[_tokenId] = targetCert;\r\n        emit BurnCert(_tokenId);\r\n\r\n    }\r\n    \r\n    function transferOwnership(uint256 _tokenId, address _to) public{\r\n        // Check if Cert can be exchange\r\n        Cert memory targetCert = _id2Certs[_tokenId];\r\n        require((msg.sender == owner || msg.sender == targetCert.issuer || msg.sender == targetCert.holder), \"BURN ERROR, Permission Error\");\r\n        require(_id2Certs[_tokenId].exchangable, \"This token can't be exchanged\");\r\n\r\n        _transferFrom(msg.sender, _to, _tokenId);\r\n        targetCert.holder = _to;\r\n        _id2Certs[_tokenId] = targetCert;\r\n    }\r\n\r\n    function getTotalCertCount () public view returns (uint) {\r\n        return totalSupply();\r\n    }\r\n\r\n    function getCert(uint _tokenId) public view\r\n    returns(uint256, string memory, uint256, address, string memory, address, uint, uint, bool, bool){\r\n        Cert memory targetCert = _id2Certs[_tokenId];\r\n\r\n        return (\r\n            targetCert.tokenId,    \r\n            targetCert.name,       \r\n            targetCert.num,        \r\n            targetCert.issuer,     \r\n            targetCert.imgurl,     \r\n            targetCert.holder,     \r\n            targetCert.date,       \r\n            targetCert.mintDate,   \r\n            targetCert.exchangable,\r\n            targetCert.authorized\r\n        );\r\n    }\r\n\r\n\r\n    function isAuthorized(address _issuer) public view\r\n    returns(bool){\r\n        return _authorizedList[_issuer].authorized;\r\n    }\r\n\r\n    function getIsserInfo(address _issuer) public view\r\n    returns(string memory, address, string memory){\r\n        AuthorizedIssuer memory isserInfo = _authorizedList[_issuer];\r\n\r\n        return (\r\n            isserInfo.name,\r\n            isserInfo.issuerAddress,\r\n            isserInfo.url\r\n        );\r\n    }\r\n\r\n    //      \r\n    function mintEmptyCert(address _issuer, uint256 _num) onlyOwner public{\r\n        //         \r\n        uint256 totalAmount = _address2EmptyCert[_issuer].add(_num); // using SafeMath\r\n        _address2EmptyCert[_issuer] = totalAmount;\r\n    }\r\n\r\n    // KLAY  \r\n    function buyEmptyCert(address _issuer, uint256 _num) public payable\r\n    returns(uint256){\r\n        \r\n        require(_num > 0, \"Needs positive value\");\r\n\r\n        uint256 fee = _num.mul(issueFee);\r\n        require(msg.value > fee, \"Not enough money\");\r\n        \r\n        owner.transfer(fee); // transfer money to owner\r\n        \r\n        uint256 totalAmount = _address2EmptyCert[_issuer].add(_num); // using SafeMath\r\n        _address2EmptyCert[_issuer] = totalAmount;\r\n\r\n        return totalAmount;\r\n    }\r\n\r\n    function returnEmptyCert(address _issuer) public view\r\n    returns (uint256){\r\n        return _address2EmptyCert[_issuer];\r\n    }\r\n\r\n    function authorize(string memory _name, address _issuer, string memory _url) onlyOwner public{\r\n        \r\n        AuthorizedIssuer memory newAuth = AuthorizedIssuer({\r\n            name            : _name,\r\n            url             : _url,\r\n            issuerAddress   : _issuer,     //   \r\n            authorized      : true\r\n        });\r\n\r\n        _authorizedList[_issuer] = newAuth;\r\n    }\r\n\r\n    function deauthorize(address _issuer) onlyOwner public{\r\n    \r\n        AuthorizedIssuer memory newAuth = AuthorizedIssuer({\r\n            name            : \"\",\r\n            url             : \"\",\r\n            issuerAddress   : address(0),     //   \r\n            authorized      : false\r\n        });\r\n\r\n        _authorizedList[_issuer] = newAuth;\r\n    }\r\n\r\n    function addSig(uint256 _tokenId, string memory _sig) public{\r\n\r\n        Cert memory targetCert = _id2Certs[_tokenId];\r\n        require(targetCert.holder != address(0), \"No such Cert\");\r\n        require((msg.sender == owner || msg.sender == targetCert.holder), \"Add sig error, Permission Error\");\r\n\r\n       _cert2sig[_tokenId].push(_sig); \r\n\r\n    }\r\n\r\n    function getIndexedSig(uint256 _tokenId, uint256 _index) public view\r\n    returns(string memory){\r\n        string memory latestSig = _cert2sig[_tokenId][_index]; \r\n        return latestSig;\r\n    }\r\n\r\n    // fallback\r\n    function() external payable {}\r\n\r\n    modifier onlyOwner {\r\n        require (msg.sender == owner, \"Only Owner\");\r\n        _;\r\n    }\r\n    \r\n}\r\n",
  "sourcePath": "/mnt/c/Users/happy/Documents/workspace/sillock/sillock-contracts/contracts/CertToken.sol",
  "compiler": {
    "name": "solc",
    "version": "0.5.6+commit.b259423e.Emscripten.clang"
  },
  "schemaVersion": "3.0.3",
  "updatedAt": "2021-02-28T17:37:39.556Z",
  "devdoc": {
    "methods": {
      "approve(address,uint256)": {
        "details": "Approves another address to transfer the given token ID The zero address indicates there is no approved address. There can only be one approved address per token at a given time. Can only be called by the token owner or an approved operator.",
        "params": {
          "to": "address to be approved for the given token ID",
          "tokenId": "uint256 ID of the token to be approved"
        }
      },
      "balanceOf(address)": {
        "details": "Gets the balance of the specified address.",
        "params": {
          "owner": "address to query the balance of"
        },
        "return": "uint256 representing the amount owned by the passed address"
      },
      "getApproved(uint256)": {
        "details": "Gets the approved address for a token ID, or zero if no address set Reverts if the token ID does not exist.",
        "params": {
          "tokenId": "uint256 ID of the token to query the approval of"
        },
        "return": "address currently approved for the given token ID"
      },
      "isApprovedForAll(address,address)": {
        "details": "Tells whether an operator is approved by a given owner.",
        "params": {
          "operator": "operator address which you want to query the approval of",
          "owner": "owner address which you want to query the approval of"
        },
        "return": "bool whether the given operator is approved by the given owner"
      },
      "ownerOf(uint256)": {
        "details": "Gets the owner of the specified token ID.",
        "params": {
          "tokenId": "uint256 ID of the token to query the owner of"
        },
        "return": "address currently marked as the owner of the given token ID"
      },
      "safeTransferFrom(address,address,uint256)": {
        "details": "Safely transfers the ownership of a given token ID to another address If the target address is a contract, it must implement `onERC721Received`, which is called upon a safe transfer, and return the magic value `bytes4(keccak256(\"onERC721Received(address,address,uint256,bytes)\"))`; otherwise, the transfer is reverted. Requires the msg.sender to be the owner, approved, or operator",
        "params": {
          "from": "current owner of the token",
          "to": "address to receive the ownership of the given token ID",
          "tokenId": "uint256 ID of the token to be transferred"
        }
      },
      "safeTransferFrom(address,address,uint256,bytes)": {
        "details": "Safely transfers the ownership of a given token ID to another address If the target address is a contract, it must implement `onERC721Received`, which is called upon a safe transfer, and return the magic value `bytes4(keccak256(\"onERC721Received(address,address,uint256,bytes)\"))`; otherwise, the transfer is reverted. Requires the msg.sender to be the owner, approved, or operator",
        "params": {
          "_data": "bytes data to send along with a safe transfer check",
          "from": "current owner of the token",
          "to": "address to receive the ownership of the given token ID",
          "tokenId": "uint256 ID of the token to be transferred"
        }
      },
      "setApprovalForAll(address,bool)": {
        "details": "Sets or unsets the approval of a given operator An operator is allowed to transfer all tokens of the sender on their behalf.",
        "params": {
          "approved": "representing the status of the approval to be set",
          "to": "operator address to set the approval"
        }
      },
      "supportsInterface(bytes4)": {
        "details": "See `IERC165.supportsInterface`.     * Time complexity O(1), guaranteed to always use less than 30 000 gas."
      },
      "tokenByIndex(uint256)": {
        "details": "Gets the token ID at a given index of all the tokens in this contract Reverts if the index is greater or equal to the total number of tokens.",
        "params": {
          "index": "uint256 representing the index to be accessed of the tokens list"
        },
        "return": "uint256 token ID at the given index of the tokens list"
      },
      "tokenOfOwnerByIndex(address,uint256)": {
        "details": "Gets the token ID at a given index of the tokens list of the requested owner.",
        "params": {
          "index": "uint256 representing the index to be accessed of the requested tokens list",
          "owner": "address owning the tokens list to be accessed"
        },
        "return": "uint256 token ID at the given index of the tokens list owned by the requested address"
      },
      "totalSupply()": {
        "details": "Gets the total amount of tokens stored by the contract.",
        "return": "uint256 representing the total amount of tokens"
      },
      "transferFrom(address,address,uint256)": {
        "details": "Transfers the ownership of a given token ID to another address. Usage of this method is discouraged, use `safeTransferFrom` whenever possible. Requires the msg.sender to be the owner, approved, or operator.",
        "params": {
          "from": "current owner of the token",
          "to": "address to receive the ownership of the given token ID",
          "tokenId": "uint256 ID of the token to be transferred"
        }
      }
    }
  },
  "userdoc": {
    "methods": {}
  }
}